:100000000C945C000C9484000C9484000C94840088
:100010000C9484000C9484000C9484000C94840050
:100020000C9484000C9484000C9484000C94840040
:100030000C9484000C9484000C9484000C94840030
:100040000C94D1070C9484000C94520A0C948400F4
:100050000C9484000C9484000C9484000C94840010
:100060000C9469020C948400000024272A000025C7
:10007000282B000023262904040404040404040299
:100080000202020202030303030303010204081035
:100090002040800102040810200102040810200002
:1000A0000000070002010000030406000000000039
:1000B00000000000F500290611241FBECFEFD4E098
:1000C000DEBFCDBF11E0A0E0B1E0E0E4F8E102C0A6
:1000D00005900D92A432B107D9F711E0A4E2B1E086
:1000E00001C01D92AB3DB107E1F710E0C8EBD0E0D5
:1000F00004C02297FE010E941A0CC43BD107C9F725
:100100000E9422060C941E0C0C9400000895089581
:1001100081E080932D016093280110922B011092B1
:100120002C01089581E080932D01609328011092A5
:100130002B0110922C0108958091270190912601A6
:10014000891B08959091260180912701981710F03E
:1001500080E00895E0912401F0912501E90FF11D5F
:1001600080819F5F9093260108959C0180913001CA
:1001700090913101892B11F19091260180912701F5
:100180009817E0F090E00BC0E0912401F091250178
:10019000EA0FFB1FA20FB31F8C9180839F5FA92FD3
:1001A000B0E0A617B70784F31092260160932701E9
:1001B000E0913001F0913101CB0109950895E09172
:1001C0002E01F0912F01309729F010922B011092FF
:1001D0002C010995089570933101609330010895C1
:1001E00070932F0160932E0108950895DF93CF93AC
:1001F0000F92CDB7DEB7698380912D018823A9F0D6
:1002000080912C018032B0F480912B01E091290182
:10021000F0912A01E80FF11D608380912B018F5F1F
:1002200080932B0180932C0105C061E0CE010196E3
:100230000E942A020F90CF91DF9108950E94F6004C
:100240000895EF92FF920F931F93CF93DF937C015A
:10025000262F042F80912D01882361F0372FE9018B
:1002600010E005C06991C7010E94F6001F5F1017DA
:10027000C8F305C0642F822F972F0E942A02DF91B6
:10028000CF911F910F91FF90EF900895FB01019086
:100290000020E9F73197E61BF70B4E2F0E94210152
:1002A00008956091290170912A0121E040912C016B
:1002B000809128010E94E50110922B0110922C01DF
:1002C00010922D010895862F413208F040E260918E
:1002D0002401709125010E94AF01109226018093A4
:1002E000270108950E946301089561E070E080E2B3
:1002F00090E00E948F0A8093240190932501109230
:1003000026011092270161E070E080E290E00E94F7
:100310008F0A8093290190932A0110922B01109249
:100320002C010E94EB0308950F931F938C01862FDD
:100330000E94AB018FED90E00E944C0285EB90E0B3
:100340000E944702C8010E9475011F910F910895F4
:100350000E9494010895880F8093BA000895982F01
:10036000413210F040E02FC0809133018823E1F743
:1003700081E0809333018FEF8093440110923B0121
:1003800040933C01990F91609093340185EE8093E6
:10039000BC00809133018130E1F380913B018417EF
:1003A00010F440913B01A0913901B0913A0120E055
:1003B00030E007C0FB01E20FF31F8D9180832F5FB8
:1003C0003F4F2417B8F3842F08951F93582F122FEF
:1003D000413210F081E03CC0809133018823E1F785
:1003E00082E0809333018FEF8093440110923B01B0
:1003F00040933C01A0913901B0913A01FB0102C048
:1004000081918D938E2F861B8417D0F3852F90E0DA
:10041000880F991F8093340185EE8093BC001123CF
:1004200021F0809133018230E1F3809144018F3FCC
:1004300011F480E00DC080914401803211F482E01B
:1004400007C080914401803311F084E001C083E053
:100450001F910895482F613210F081E00895809136
:100460003301843011F082E0089560934001A0913F
:100470003D01B0913E01842F9C01F90102C08191A0
:100480008D938E2F841B8617D0F380E00895909370
:100490003801809337010895909336018093350198
:1004A0000895882311F085EC01C085E88093BC0095
:1004B000089585ED8093BC008091BC0084FDFCCF45
:1004C00010923301089585EC8093BC0010923301A3
:1004D00008951F920F920FB60F9211242F933F93FE
:1004E0004F935F936F937F938F939F93AF93BF933C
:1004F000EF93FF938091B90090E0887F90708036F1
:10050000910509F4E2C081369105CCF58832910558
:1005100009F47BC089329105B4F48031910509F466
:100520006FC0813191053CF4009709F438C10897F8
:1005300009F040C165C08831910509F466C0809713
:1005400009F038C17FC08034910509F4A3C081341B
:10055000910544F48033910509F47FC0C89709F0F0
:1005600029C186C08035910509F486C0883591057A
:1005700009F495C08834910509F01CC19EC08839E2
:10058000910509F404C189399105ECF48837910586
:1005900009F49BC0893791054CF48836910509F41C
:1005A00094C08037910509F005C18FC08838910546
:1005B00009F4EDC08039910509F48DC080389105AA
:1005C00009F0F8C088C0803B910509F4B2C0813BB6
:1005D00091054CF4803A910509F491C0883A91054F
:1005E00009F0E8C0A6C0803C910509F4D4C0883C5D
:1005F000910509F4D0C0883B910509F0DBC0B1C07A
:10060000809134018093BB00C0C090913B018091E8
:100610003C01981778F490913B01E0913901F091F9
:100620003A01E90FF11D80818093BB009F5F909399
:100630003B01ABC085ED8093BC008091BC0084FD84
:10064000FCCFB6C080E28093440185ED8093BC006E
:100650008091BC0084FDFCCFABC080E3809344015B
:1006600085ED8093BC008091BC0084FDFCCFA0C0D0
:1006700088E3809344018FC080913B019091BB003F
:10068000E0913901F0913A01E80FF11D90838F5FFD
:1006900080933B0190913B0180913C0174C080911B
:1006A0003B019091BB00E0913901F0913A01E80FD4
:1006B000F11D90838F5F80933B0185ED8093BC009B
:1006C0008091BC0084FDFCCF73C083E08093330134
:1006D000109243015AC080914301803208F057C004
:1006E000809143019091BB00E0914101F091420162
:1006F000E80FF11D90838F5F8093430146C0809186
:100700004301803248F480914301E0914101F0912E
:100710004201E80FF11D108260914301E091370121
:10072000F091380170E0809141019091420109956A
:1007300032C084E08093330110923F011092400157
:10074000E0913501F09136010995809140018823AF
:1007500041F481E080934001E0913D01F0913E0140
:10076000108290913F01E0913D01F0913E01E90F2F
:10077000F11D80818093BB009F5F90933F0190911A
:100780003F0180914001981710F485EC01C085E885
:100790008093BC000FC085EC8093BC0009C0109210
:1007A000440185ED8093BC008091BC0084FDFCCFAA
:1007B00010923301FF91EF91BF91AF919F918F9173
:1007C0007F916F915F914F913F912F910F900FBE4D
:1007D0000F901F90189510923301449A459AE9EBB7
:1007E000F0E080818E7F808380818D7F808388E4AC
:1007F0008093B80085E48093BC0061E070E080E203
:1008000090E00E948F0A8093390190933A0161E051
:1008100070E080E290E00E948F0A80933D01909307
:100820003E0161E070E080E290E00E948F0A8093D8
:100830004101909342010895269A2E982E9A2E985F
:100840000895DF93CF930F92CDB7DEB78983898167
:100850008EBD0DB407FEFDCF8EB50F90CF91DF9109
:10086000089585E08EBD0DB407FEFDCF8EB50895C9
:10087000269A2E982E9A2E98089588E080936000EC
:1008800008950E94B1089C01832F992787FD9A95AE
:100890008EBD0DB407FEFDCF8EB52EBD0DB407FE87
:1008A000FDCF8EB508951F93182F60E00E94230995
:1008B000812F0E948C098EBD0DB407FEFDCF8EB531
:1008C0001F9108950F931F93082F162F61E00E9428
:1008D0002309612F70E0802F0E94CF081F910F9194
:1008E00008951F93182F61E00E94230960E0812F73
:1008F0000E9441091F9108951F93182F61E00E94E3
:10090000230961E0812F0E9441091F9108958130E0
:1009100029F44CE251E060E070E03EC0823029F4FE
:1009200040EB54E060E070E037C0833029F440E6EB
:1009300059E060E070E030C0843029F440EC52E1CE
:1009400060E070E029C0853029F440E855E260E0BD
:1009500070E022C0863029F440E458E360E070E0A3
:100960001BC0873029F440E05BE460E070E014C015
:10097000883029F440E850E760E070E00DC089302D
:1009800029F440E056E960E070E006C08A3049F49E
:1009900040E051EE60E070E089E491E00E943D06A5
:1009A00008958B3041F440E052EC61E070E089E45E
:1009B00091E00E943D0608951F9389E491E00E9412
:1009C0003A06882349F089E491E00E9437068EBDFB
:1009D0000DB407FEFDCF04C01EBC0DB407FEFDCF55
:1009E0001EB580914501853021F580914601843402
:1009F00009F0FFC08091480181508093480188230D
:100A000091F4612F82E391E00E94F60082E391E08D
:100A10000E945101269A2E982E9A2E988EBD0DB4C2
:100A200007FEFDCF78C0612F82E391E00E94F600BF
:100A3000E0C0843009F055C080914601813099F4BE
:100A4000412F50E060E070E020E030E089E491E088
:100A50000E94B1078091480181508093480188230A
:100A600009F0C7C0AFC0823131F4612F80914801D5
:100A70000E946204A7C0843421F41093480185E0E9
:100A80003AC0863409F0B5C0412F6091480182E335
:100A900091E00E94630180934801269A2E982E9A35
:100AA0002E988EBD0DB407FEFDCF8EB50AC082E331
:100AB00091E00E94A2008EBD0DB407FEFDCF8EB561
:100AC000115082E391E00E949C00882381F706C0C8
:100AD0001EBC0DB407FEFDCF8EB511501123C1F71A
:100AE00071C0833009F061C080914601813031F4DA
:100AF0001093480184E0809345017BC0843021F449
:100B0000812F0E9487045EC0863039F485E08EBD57
:100B10000DB407FEFDCF8EB555C0873029F4269A57
:100B20002E982E9A2E984EC0883019F4809360002B
:100B300049C0803121F4812F0E947C0443C081315F
:100B400021F4812F0E9471043DC0823189F28034EA
:100B500021F4812F0E94530435C0823421F4812F67
:100B60000E9441042FC0843489F480914701882376
:100B700039F482E391E00E94750181E0809347019E
:100B8000612F82E391E00E948800B4CF863489F51A
:100B900080914701882309F0ABCF82E391E00E9466
:100BA000750181E080934701A3CF882321F415309C
:100BB00001F581E0A0CF813041F4123019F4109397
:100BC000450117C01092450114C0823091F4109273
:100BD0004501EAE0F1E08081181731F483E0809369
:100BE00045011093460105C0319681E0E631F807D2
:100BF00091F71F9108950F931F9309E411E040E0CE
:100C000051EE60E070E0C8010E943D0660E071E0D6
:100C1000C8010E94910660E08AE00E94230960E01A
:100C20008BE00E94230961E08CE00E94230960E0D0
:100C30008DE00E9423098CE48CBD8DB58EB51F918B
:100C40000F9108950E9474080E94FB050E94DC0425
:100C5000FDCF8AE191E090934A0180934901089584
:100C6000862F0E94110A08950E94490A08950E9441
:100C70002A0A08950E94190A0895CB01BA010E9418
:100C8000D8090895DC01ED91FC910190F081E02DEF
:100C900009950895DC01ED91FC910190F081E02D22
:100CA000099508950F931F93CF93DF938C01EB0168
:100CB00009C02196D801ED91FC910190F081E02DC1
:100CC000C801099568816623A1F7DF91CF911F9133
:100CD0000F9108950F931F938C01DC01ED91FC910E
:100CE0000190F081E02D6DE00995D801ED91FC9126
:100CF0000190F081E02D6AE0C80109951F910F91E4
:100D000008950F931F938C01DC01ED91FC910190EC
:100D1000F081E02D0995C8010E946A061F910F918C
:100D200008950F931F938C010E945206C8010E94E0
:100D30006A061F910F9108950F931F938C01DC0198
:100D4000ED91FC910190F081E02D0995C8010E9480
:100D50006A061F910F9108952F923F924F925F92D2
:100D60006F927F928F929F92AF92BF92CF92DF92BB
:100D7000EF92FF920F931F93DF93CF93CDB7DEB720
:100D8000A0970FB6F894DEBF0FBECDBF1C016A015D
:100D90007B01411551056105710549F4DC01ED91B7
:100DA000FC910190F081E02D60E3099554C0882406
:100DB00099245401422E55246624772401E010E042
:100DC0000C0F1D1F080D191DC701B601A3019201CB
:100DD0000E94C70BF80160830894811C911CA11C20
:100DE000B11CC701B601A30192010E94C70BC90142
:100DF000DA016C017D01C114D104E104F104F1F6C2
:100E000081E0E82EF12CEC0EFD1EE80CF91C3E01F1
:100E10000894611C711CD501C4010197A109B10995
:100E20006C01C818D90814C0F601EE0DFF1D6081D1
:100E30006A3010F4605D01C0695CD101ED91FC91F4
:100E40000190F081E02DC10109950894E108F108B5
:100E50006E147F0449F7A0960FB6F894DEBF0FBE5C
:100E6000CDBFCF91DF911F910F91FF90EF90DF9059
:100E7000CF90BF90AF909F908F907F906F905F903A
:100E80004F903F902F9008952AE00E94AC0608955D
:100E90000F931F938C010E944407C8010E946A06A9
:100EA0001F910F910895AB0160E070E00E9444072C
:100EB00008950F931F938C01AB0160E070E00E94D6
:100EC0004407C8010E946A061F910F910895EF928E
:100ED000FF920F931F93CF93DF93EC017A018B0165
:100EE00077FF0FC0E881F9810190F081E02D6DE27C
:100EF000099510950095F094E094E11CF11C011DFA
:100F0000111D2AE0B801A701CE010E94AC06DF91B5
:100F1000CF911F910F91FF90EF9008950F931F9322
:100F20008C010E946707C8010E946A061F910F91F9
:100F30000895AB01662757FD6095762F0E946707DD
:100F400008950F931F938C01AB01662757FD6095A1
:100F5000762F0E946707C8010E946A061F910F91B1
:100F60000895DC012115310541F4ED91FC910190CA
:100F7000F081E02D642F099508952A30310519F488
:100F80000E94670708950E94AC0608950F931F936F
:100F90008C010E94B107C8010E946A061F910F913F
:100FA00008951F920F920FB60F9211242F938F93D3
:100FB0009F93AF93BF9380914B0190914C01A0916F
:100FC0004D01B0914E018050904CAF4FBF4F809378
:100FD0004B0190934C01A0934D01B0934E0127C05B
:100FE00080914B0190914C01A0914D01B0914E0127
:100FF00080549F41A040B04080934B0190934C019E
:10100000A0934D01B0934E0180914F0190915001FA
:10101000A0915101B09152010196A11DB11D809383
:101020004F0190935001A0935101B09352018091D0
:101030004B0190914C01A0914D01B0914E01815412
:101040009F41A040B04060F6BF91AF919F918F91BA
:101050002F910F900FBE0F901F9018958FB7F89497
:1010600020914F0130915001409151015091520116
:101070008FBFB901CA010895EF92FF920F931F939A
:101080007B018C018FB7F89440914F015091500132
:1010900060915101709152018FBF2FB7F8948091E8
:1010A0004F0190915001A0915101B09152012FBF79
:1010B000841B950BA60BB70B8E159F05A007B107D8
:1010C00060F31F910F91FF90EF900895019759F0F1
:1010D000019749F0FC01EE0FFF1F31978FB7F8948D
:1010E0003197F1F78FBF0895789484B5826084BDFD
:1010F00084B5816084BD85B5826085BD85B581601C
:1011000085BDEEE6F0E0808181608083E1E8F0E07B
:10111000808182608083808181608083E0E8F0E06C
:10112000808181608083E1EBF0E080818460808356
:10113000E0EBF0E0808181608083EAE7F0E080818D
:1011400084608083808182608083808181608083ED
:101150008081806880831092C100089580931C0173
:1011600008958F7090911C019295990F990F907C22
:10117000982B90937C0080917A00806480937A0011
:1011800080917A0086FDFCCF209178004091790013
:10119000942F80E030E0282B392BC90108951F934C
:1011A000CF93DF93182FEB0161E00E942309E12F19
:1011B000F0E0E156FF4F8491833051F4809180003C
:1011C000806880938000D0938900C093880037C0E6
:1011D000843051F480918000806280938000D093AD
:1011E0008B00C0938A002BC0813029F484B58068BD
:1011F00084BDC7BD24C0823029F484B5806284BD1B
:10120000C8BD1DC0863041F48091B00080688093D5
:10121000B000C093B30013C0873041F48091B00098
:1012200080628093B000C093B40009C0C038D1057B
:1012300014F460E001C061E0812F0E944109DF9158
:10124000CF911F910895282F30E0C90185579F4FF6
:10125000FC01949129583F4FF9018491882381F032
:10126000E82FF0E0E859FF4FE491F0E0662329F41D
:10127000808190958923808308958081892B808344
:101280000895482F50E0CA0181569F4FFC012491D8
:10129000CA0185579F4FFC01949149585F4FFA014D
:1012A00034913323C1F1222331F1233021F4809191
:1012B00080008F7705C0243031F4809180008F7DCD
:1012C0008093800018C0213019F484B58F7704C052
:1012D000223021F484B58F7D84BD0DC0263021F4E9
:1012E0008091B0008F7705C0273029F48091B0003D
:1012F0008F7D8093B000E32FF0E0E359FF4FE4913E
:10130000F0E0662329F480819095892380830895F5
:101310008081892B80830895482F50E0CA0181562F
:101320009F4FFC012491CA0185579F4FFC01949166
:1013300049585F4FFA013491332319F420E030E02B
:1013400035C0222331F1233021F4809180008F7742
:1013500005C0243031F4809180008F7D809380001F
:1013600018C0213019F484B58F7704C0223021F4DD
:1013700084B58F7D84BD0DC0263021F48091B000EE
:101380008F7705C0273029F48091B0008F7D80933E
:10139000B000E32FF0E0EE58FF4FE491F0E08081E1
:1013A00020E030E0892311F021E030E0C901089508
:1013B000EF92FF920F931F937B018C0122E030E0AC
:1013C00040E050E00E94E90B205E3E45484F5F4FF1
:1013D000CA01B901A80197010E94E90BC901DA010C
:1013E0000197A109B109292F3A2F4B2F552747FD06
:1013F0005A950196A11DB11D2093C500815080937F
:10140000C400E1ECF0E080818061808380818860AD
:1014100080838081806880831F910F91FF90EF907F
:101420000895982F8091C00085FFFCCF9093C6004F
:101430000895809153019091540180589F4F2091BD
:10144000550130915601821B930B60E870E00E94B9
:10145000B40B08954091550150915601809153016C
:10146000909154018417950719F42FEF3FEF0FC0A7
:10147000FA01E95AFE4F2081CA01019660E870E046
:101480000E94B40B909356018093550130E0C9013E
:101490000895809155019091560190935401809345
:1014A000530108951F920F920FB60F9211242F939C
:1014B0003F934F935F936F937F938F939F93AF93DC
:1014C000BF93EF93FF934091C600E0915301F091D9
:1014D0005401CF01019660E870E00E94B40B9C01BA
:1014E00080915501909156012817390739F0E95A32
:1014F000FE4F40833093540120935301FF91EF91AD
:10150000BF91AF919F918F917F916F915F914F911B
:101510003F912F910F900FBE0F901F9018950F9332
:101520001F93CF93DF93689F8001699F100D789F71
:10153000100D1124C8010E94AB0AEC01009729F09C
:10154000A80160E070E00E94AD0BCE01DF91CF9169
:101550001F910F910895CF93DF93BC0182309105C5
:1015600010F462E070E0A091D901B091DA01ED01D0
:10157000E0E0F0E040E050E021C0888199818617EA
:10158000970769F48A819B81309719F0938382834E
:1015900004C09093DA018093D901FE0134C068172A
:1015A000790738F44115510519F08417950708F4A7
:1015B000AC01FE018A819B819C01E9012097E9F63B
:1015C00041155105A9F1CA01861B970B049708F430
:1015D000BA01E0E0F0E02AC08D919C911197841748
:1015E0009507F9F46417750781F412968D919C9113
:1015F0001397309719F09383828304C09093DA0194
:101600008093D901FD0132964CC0CA01861B970B0D
:10161000FD01E80FF91F6193719302978D939C93DD
:1016200040C0FD01828193819C01D9011097A1F6F0
:101630008091D7019091D801892B41F480911F01AD
:10164000909120019093D8018093D701409121017E
:10165000509122014115510541F44DB75EB780917B
:101660001D0190911E01481B590B2091D70130910B
:10167000D801CA01821B930B8617970780F0AB0134
:101680004E5F5F4F8417950750F0420F531F5093E2
:10169000D8014093D701F9016193719302C0E0E052
:1016A000F0E0CF01DF91CF910895CF93DF930097C2
:1016B00009F450C0EC0122971B821A82A091D90133
:1016C000B091DA01109709F140E050E0AC17BD0786
:1016D00008F1BB83AA83FE0121913191E20FF31F30
:1016E000AE17BF0779F48D919C911197280F391F80
:1016F0002E5F3F4F3983288312968D919C911397CB
:101700009B838A834115510571F4D093DA01C0930C
:10171000D90120C012968D919C911397AD0100972D
:1017200011F0DC01D3CFFA01D383C283219131912F
:10173000E20FF31FCE17DF0769F488819981280F24
:10174000391F2E5F3F4FFA01318320838A819B81AD
:1017500093838283DF91CF910895DC0101C06D9363
:1017600041505040E0F7089597FB092E07260AD014
:1017700077FD04D049D006D000201AF47095619509
:101780007F4F0895F6F7909581959F4F0895A1E2B8
:101790001A2EAA1BBB1BFD010DC0AA1FBB1FEE1FEB
:1017A000FF1FA217B307E407F50720F0A21BB30B36
:1017B000E40BF50B661F771F881F991F1A9469F7B2
:1017C00060957095809590959B01AC01BD01CF010E
:1017D000089597FB092E05260ED057FD04D0D7DFBC
:1017E0000AD0001C38F450954095309521953F4F14
:1017F0004F4F5F4F0895F6F79095809570956195DE
:101800007F4F8F4F9F4F0895AA1BBB1B51E107C00D
:10181000AA1FBB1FA617B70710F0A61BB70B881F80
:10182000991F5A95A9F780959095BC01CD0108950F
:10183000EE0FFF1F0590F491E02D0994F894FFCF6F
:101840005374616E6462792E2E000104060708103D
:10185000111240424446000000003006012000DB27
:041860000100000083
:00000001FF
