:100000000C9463000C948B000C948B000C948B006C
:100010000C948B000C948B000C948B000C948B0034
:100020000C948B000C948B000C948B000C948B0024
:100030000C948B000C948B000C948B000C948B0014
:100040000C9453070C948B000C943E090C948B0079
:100050000C948B000C948B000C948B000C948B00F4
:100060000C94D2020C948B000000000024002700A6
:100070002A0000000000250028002B0000000000DE
:1000800023002600290004040404040404040202DA
:100090000202020203030303030301020408102007
:1000A0004080010204081020010204081020000012
:1000B0000007000201000003040600000000000029
:1000C0000000CF01C30A11241FBECFEFD4E0DEBF72
:1000D000CDBF11E0A0E0B1E0E6E2F9E102C0059099
:1000E0000D92A231B107D9F711E0A2E1B1E001C050
:1000F0001D92A73DB107E1F710E0C6ECD0E004C0C7
:100100002297FE010E948D0CC23CD107C9F70E94C4
:100110004C070C94910C0C9400000F931F93CF93F9
:10012000DF93689F8001699F100D789F100D112447
:10013000C8010E94A900EC01009729F060E070E07E
:10014000A8010E94AB01CE01DF91CF911F910F91C9
:100150000895CF93DF93BC018230910510F462E0E3
:1001600070E0A091D501B091D601ED01E0E0F0E0A2
:1001700040E050E021C0888199818617970769F493
:100180008A819B81309719F09383828304C0909376
:10019000D6018093D501FE0134C06817790738F481
:1001A0004115510519F08417950708F4AC01FE01BB
:1001B0008A819B819C01E9012097E9F6411551054F
:1001C000A9F1CA01861B970B049708F4BA01E0E075
:1001D000F0E02AC08D919C91119784179507F9F44E
:1001E0006417750781F412968D919C91139730973F
:1001F00019F09383828304C09093D6018093D50134
:10020000FD0132964CC0CA01861B970BFD01E80F19
:10021000F91F6193719302978D939C9340C0FD01E8
:10022000828193819C01D9011097A1F68091D3011D
:100230009091D401892B41F48091020190910301A6
:100240009093D4018093D301409104015091050112
:100250004115510541F44DB75EB780910001909171
:100260000101481B590B2091D3013091D401CA01DF
:10027000821B930B8617970780F0AB014E5F5F4F91
:100280008417950750F0420F531F5093D4014093A9
:10029000D301F9016193719302C0E0E0F0E0CF0176
:1002A000DF91CF910895CF93DF93009709F450C069
:1002B000EC0122971B821A82A091D501B091D60140
:1002C000109709F140E050E0AC17BD0708F1BB837F
:1002D000AA83FE0121913191E20FF31FAE17BF07F0
:1002E00079F48D919C911197280F391F2E5F3F4F04
:1002F0003983288312968D919C9113979B838A83CF
:100300004115510571F4D093D601C093D50120C099
:1003100012968D919C911397AD01009711F0DC011D
:10032000D3CFFA01D383C28321913191E20FF31F1E
:10033000CE17DF0769F488819981280F391F2E5F56
:100340003F4FFA01318320838A819B81938382838B
:10035000DF91CF910895DC0101C06D934150504071
:10036000E0F7089581E080931B01609316011092DD
:10037000190110921A0108959091140180911501AC
:10038000981710F080E00895E0911201F0911301A8
:10039000E90FF11D80819F5F9093140108950895E6
:1003A000DF93CF930F92CDB7DEB7698380911B01A6
:1003B0008823A9F080911A018032B0F4809119014C
:1003C000E0911701F0911801E80FF11D6083809111
:1003D00019018F5F8093190180931A0105C0CE0126
:1003E000019661E00E94B5020F90CF91DF910895D0
:1003F00060911701709118018091160140911A01C6
:1004000021E00E9470021092190110921A011092BC
:100410001B010895862F60911201709113014132E2
:1004200008F040E20E9438021092140180931501F6
:10043000089580E290E061E070E00E948D0080937A
:10044000120190931301109214011092150180E291
:1004500090E061E070E00E948D008093170190931E
:1004600018011092190110921A010E945404089563
:10047000982F413210F040E031C080911D01882357
:10048000E1F781E080931D018FEF80932E011092A0
:1004900025014150409326014F5F990F9160909341
:1004A0001E0185EE8093BC0080911D018130E1F337
:1004B00080912501841710F440912501A09123011A
:1004C000B091240120E030E007C0FB01E20FF31FF0
:1004D0008D9180832F5F3F4F2417B8F3842F0895A9
:1004E0001F93582F122F413210F081E03CC08091B1
:1004F0001D018823E1F782E080931D018FEF809337
:100500002E011092250140932601A0912301B09164
:100510002401FB0102C081918D938E2F861B8417CD
:10052000D0F3852F90E0880F991F80931E0185EEF0
:100530008093BC00112321F080911D018230E1F3F2
:1005400080912E018F3F11F480E00DC080912E012B
:10055000803211F482E007C080912E01803311F0C7
:1005600084E001C083E01F910895482F613210F0AC
:1005700081E0089580911D01843011F082E008959A
:1005800060932A01A0912701B0912801842F9C013A
:10059000F90102C081918D938E2F841B8617D0F3B1
:1005A00080E008951F920F920FB60F9211242F939F
:1005B0003F934F935F936F937F938F939F93AF93EB
:1005C000BF93EF93FF938091B90090E0887F907084
:1005D0008036910509F4E2C081369105CCF5883268
:1005E000910509F47BC089329105B4F480319105FD
:1005F00009F46FC0813191053CF4009709F438C1CA
:10060000089709F040C165C08831910509F466C0BA
:10061000809709F038C17FC08034910509F4A3C0E8
:100620008134910544F48033910509F47FC0C89763
:1006300009F029C186C08035910509F486C0883546
:10064000910509F495C08834910509F01CC19EC03C
:100650008839910509F404C189399105ECF488378A
:10066000910509F49BC0893791054CF488369105B2
:1006700009F494C08037910509F005C18FC088380E
:10068000910509F4EDC08039910509F48DC08038D9
:10069000910509F0F8C088C0803B910509F4B2C00B
:1006A000813B91054CF4803A910509F491C0883A58
:1006B000910509F0E8C0A6C0803C910509F4D4C0BA
:1006C000883C910509F4D0C0883B910509F0DBC056
:1006D000B1C080911E018093BB00C0C090912501E4
:1006E00080912601981778F490912501E0912301DB
:1006F000F0912401E90FF11D80818093BB009F5F81
:1007000090932501ABC085ED8093BC008091BC0027
:1007100084FDFCCFB6C080E280932E0185ED8093EE
:10072000BC008091BC0084FDFCCFABC080E3809313
:100730002E0185ED8093BC008091BC0084FDFCCF30
:10074000A0C088E380932E018FC0809125019091F5
:10075000BB00E0912301F0912401E80FF11D90838B
:100760008F5F80932501909125018091260174C0AF
:10077000809125019091BB00E0912301F09124012B
:10078000E80FF11D90838F5F8093250185ED8093A5
:10079000BC008091BC0084FDFCCF73C083E08093DB
:1007A0001D0110922D015AC080912D01803208F058
:1007B00057C080912D019091BB00E0912B01F091E9
:1007C0002C01E80FF11D90838F5F80932D0146C0AF
:1007D00080912D01803248F480912D01E0912B0110
:1007E000F0912C01E80FF11D108260912D01E09134
:1007F0002101F091220180912B0190912C0170E058
:10080000099532C084E080931D0110922901109255
:100810002A01E0911F01F0912001099580912A01A0
:10082000882341F481E080932A01E0912701F0912F
:100830002801108290912901E0912701F09128016F
:10084000E90FF11D80818093BB009F5F9093290188
:100850009091290180912A01981710F485EC01C02C
:1008600085E88093BC000FC085EC8093BC0009C074
:1008700010922E0185ED8093BC008091BC0084FD18
:10088000FCCF10921D01FF91EF91BF91AF919F910D
:100890008F917F916F915F914F913F912F910F9029
:1008A0000FBE0F901F90189510921D01449A459A03
:1008B000E9EBF0E080818E7F808380818D7F808373
:1008C00088E48093B80085E48093BC0080E290E0E7
:1008D00061E070E00E948D008093230190932401D9
:1008E00080E290E061E070E00E948D00809327013B
:1008F0009093280180E290E061E070E00E948D001A
:1009000080932B0190932C01089584E880937A00C2
:100910001EBC0DB407FEFDCF8EB58F708066809330
:100920007C0083E88093B00081E08093B100109256
:100930006E0010926F0080917A00806480937A003C
:1009400090E080917A0086FDFCCF809179008091C3
:100950007A00806480937A009F5F983091F720E05E
:1009600080917A0086FDFCCF9091790080917A0089
:10097000806480937A009EBD0DB407FEFDCF8EB5D6
:10098000222321F48C3561F721E0EACF213039F7B9
:10099000863429F708951EBC0DB407FEFDCF8EB531
:1009A0008E3411F08E3621F48091C2008F7D07C005
:1009B000853411F0853659F48091C20080628093AD
:1009C000C2008091C2008F7E8093C20008958F3450
:1009D00011F08F3651F48091C20080628093C20082
:1009E0008091C20080618093C2000895EF92FF92CF
:1009F0000F931F93DF93CF93CDB7DEB7A0970FB6BA
:100A0000F894DEBF0FBECDBF1EBC0DB407FEFDCFF8
:100A1000FEB480E28F1510F480E2F82E8E010F5F95
:100A20001F4FF801E02E06C01EBC0DB407FEFDCF1F
:100A30008EB581938E2F8E198F15B0F307C080EC81
:100A400091E0F80161918F010E94B00A802F8E1908
:100A50008F15A8F3269A2E982E9A2E98FEBC0DB4C8
:100A600007FEFDCF8EB5A0960FB6F894DEBF0FBE81
:100A7000CDBFCF91DF911F910F91FF90EF9008951F
:100A80001EBC0DB407FEFDCF3EB51EBC0DB407FE67
:100A9000FDCF2EB51EBC0DB407FEFDCF4EB51EBC5E
:100AA0000DB407FEFDCFEEB5942F80E0532F40E04C
:100AB00030E0422B532B60E070E0BA015527442709
:100AC000F0E08E2B9F2BA0E0B0E0480F591F6A1F6B
:100AD0007B1F80EC91E00E947B0908951F93809119
:100AE0003101882339F48CE191E00E94190281E000
:100AF000809331011EBC0DB407FEFDCF6EB58CE1B5
:100B000091E00E94B2011EBC0DB407FEFDCF1EB5E0
:100B10000AC01EBC0DB407FEFDCF6EB58CE191E09E
:100B20000E94D00111501123A1F78CE191E00E94A5
:100B3000F801269A2E982E9A2E988EBD0DB407FE97
:100B4000FDCF8EB51F9108950F931F9380913101B2
:100B5000882339F48CE191E00E94190281E08093AE
:100B600031011EBC0DB407FEFDCF6EB51EBC0DB429
:100B700007FEFDCF0EB58CE191E0402F0E940A02E6
:100B8000182F269A2E982E9A2E988EBD0DB407FEF9
:100B9000FDCF8EB513C0112359F08CE191E00E9476
:100BA000BC018EBD0DB407FEFDCF8EB5115005C042
:100BB0001EBC0DB407FEFDCF8EB50150002359F7C2
:100BC0001F910F910895CF93DF9380EC91E040E067
:100BD00052EC61E070E00E947B09C0E0D0E080EC64
:100BE00091E065E50E94B00A2196C038D105B9F7B9
:100BF0006AE070E080E090E00E94A707269A2E98B5
:100C00002E9A2E981EBC0DB407FEFDCF8EB5DF9137
:100C1000CF91089580EC91E040E051EE60E070E00B
:100C20000E947B098AE060E00E9482088BE060E01D
:100C30000E9482088CE061E00E9482088DE060E002
:100C40000E9482088CE48CBD8DB58EB508950F93FB
:100C50001F931EBC0DB407FEFDCF1EB51EBC0DB408
:100C600007FEFDCF0EB5812F61E00E9482080130A2
:100C700019F4812F61E004C0002321F4812F60E08A
:100C80000E94A2081F910F9108951F931EBC0DB4DE
:100C900007FEFDCF1EB5812F60E00E948208812FE4
:100CA0000E94EF08019731F481E08EBD0DB407FE7C
:100CB000FDCF04C01EBC0DB407FEFDCF8EB51F9145
:100CC00008950F931F931EBC0DB407FEFDCF0EB504
:100CD0001EBC0DB407FEFDCF1EB5802F61E00E9443
:100CE0008208802F612F70E00E9429081F910F91C8
:100CF00008951F931EBC0DB407FEFDCF1EB5812FB6
:100D000060E00E948208812F0E940B08269A2E988C
:100D10002E9A2E989EBD0DB407FEFDCF9EB58EBDBA
:100D20000DB407FEFDCF8EB51F910895809130015F
:100D3000882329F0909132011092300122C080EC7A
:100D400091E00E94740A882311F490E01AC080ECAC
:100D500091E00E94880A982F882319F4109232019A
:100D60000CC08C3531F48093320181E080933001E6
:100D700008C08F3F31F48093320181E080933001CD
:100D80009CE59EBD0DB407FEFDCF4EB580912F01B1
:100D9000882309F46FC010922F01413619F40E9484
:100DA00079060895413419F40E9461060895423687
:100DB00019F40E9440050895443619F40E9445062E
:100DC0000895443419F40E9427060895463619F40C
:100DD0000E9485040895493619F40E94A4050895D7
:100DE000493419F40E946E0508954E3619F40E9494
:100DF000E3050895403719F40E94CB040895423763
:100E000061F41EBC0DB407FEFDCFEEB5F0E08081AD
:100E10008EBD0DB407FEFDCF1BC0423569F41EBC6C
:100E20000DB407FEFDCFEEB51EBC0DB407FEFDCF21
:100E30008EB5F0E080830895453719F40E94F604DA
:100E40000895463739F482E18EBD0DB407FEFDCF1B
:100E50008EB50895483721F488E0809360000895A6
:100E600050E060E070E080EC91E020E030E00E9433
:100E7000F30B08954C3521F481E080932F01089500
:100E8000442349F050E060E070E080EC91E020E025
:100E900030E00E94F30B08950E94D1070E940A06D9
:100EA0000E949606FDCF1F920F920FB60F9211244B
:100EB0002F933F934F935F936F937F938F939F9362
:100EC000AF93BF93209137013091380140913901A0
:100ED00050913A0170913B01DA01C9010296A11DBE
:100EE000B11D672F6A5F6D3730F06D57DA01C901A8
:100EF0000396A11DB11D60933B0180933701909330
:100F00003801A0933901B0933A0180913301909157
:100F10003401A0913501B09136010196A11DB11D9A
:100F20008093330190933401A0933501B09336013F
:100F3000BF91AF919F918F917F916F915F914F91F1
:100F40003F912F910F900FBE0F901F901895EF9229
:100F5000FF920F931F937B018C018FB7F894409100
:100F60003701509138016091390170913A018FBF7A
:100F70002FB7F8948091370190913801A0913901F1
:100F8000B0913A012FBF841B950BA60BB70BE81647
:100F9000F9060A071B0760F71F910F91FF90EF906A
:100FA0000895789484B5826084BD84B5816084BDE1
:100FB00085B5826085BD85B5816085BDEEE6F0E0D2
:100FC000808181608083E1E8F0E0808182608083BD
:100FD000808181608083E0E8F0E0808181608083AF
:100FE000E1EBF0E0808184608083E0EBF0E08081E1
:100FF00081608083EAE7F0E0808184608083808183
:10100000826080838081816080838081806880832A
:101010001092C10008958F70909106019295990FDA
:10102000990F907C982B90937C0080917A0080643B
:1010300080937A0080917A0086FDFCCF2091780021
:1010400040917900942F80E030E0282B392BC901A2
:1010500008951F93CF93DF93182FEB0161E00E9457
:101060008208E12FF0E0E255FF4F8491833051F484
:1010700080918000806880938000D0938900C09325
:1010800088003CC0843051F480918000806280935D
:101090008000D0938B00C0938A0030C0813039F437
:1010A000209729F184B5806884BDC7BD27C08230F0
:1010B00039F42097E1F084B5806284BDC8BD1EC0BC
:1010C000863041F48091B00080688093B000C09376
:1010D000B30014C0873041F48091B00080628093E7
:1010E000B000C093B4000AC0C038D1051CF4812FF1
:1010F00060E002C0812F61E00E94A208DF91CF91E1
:101100001F910895282F30E0C90186569F4FFC019A
:1011100094912A573F4FF9018491882391F0E82F49
:10112000F0E0EE0FFF1FE859FF4FA591B491662341
:1011300029F48C91909589238C9308958C91892B17
:101140008C930895482F50E0CA0182559F4FFC01AF
:101150002491CA0186569F4FFC0194914A575F4FD4
:10116000FA0134913323D1F1222331F1233021F4D8
:10117000809180008F7705C0243031F48091800009
:101180008F7D8093800018C0213019F484B58F774B
:1011900004C0223021F484B58F7D84BD0DC026307B
:1011A00021F48091B0008F7705C0273029F4809119
:1011B000B0008F7D8093B000E32FF0E0EE0FFF1FB3
:1011C000EE58FF4FA591B491662329F48C91909528
:1011D00089238C9308958C91892B8C930895682F83
:1011E00070E0CB0182559F4FFC012491CB018656C4
:1011F0009F4FFC0144916A577F4FFB0194919923C3
:1012000019F420E030E038C0222331F1233021F4FA
:10121000809180008F7705C0243031F48091800068
:101220008F7D8093800018C0213019F484B58F77AA
:1012300004C0223021F484B58F7D84BD0DC02630DA
:1012400021F48091B0008F7705C0273029F4809178
:10125000B0008F7D8093B000892F90E0880F991F98
:1012600084589F4FFC01A591B4918C9120E030E00F
:10127000842311F021E030E0C90108951F920F92FC
:101280000FB60F9211242F933F934F935F936F9359
:101290007F938F939F93AF93BF93EF93FF9340916F
:1012A000C600E091BC01F091BD01CF01019660E85C
:1012B00070E00E94270C9C018091BE019091BF01BB
:1012C0002817390739F0E45CFE4F40833093BD01A5
:1012D0002093BC01FF91EF91BF91AF919F918F91AE
:1012E0007F916F915F914F913F912F910F900FBE22
:1012F0000F901F9018955F926F927F928F929F929E
:10130000AF92BF92CF92DF92EF92FF920F931F9313
:10131000CF93DF93EC013A014B01413281EA580748
:1013200087E0680780E078070CF07FC060E472E433
:101330008FE090E0A40193010E945C0C21503040AA
:1013400040405040CA01B90122E030E040E050E0A6
:101350000E945C0C59016A01A60195012095309507
:101360004095509594E0220F331F441F551F9A95C6
:10137000D1F760E072E18AE790E00E945C0CCA015C
:10138000B9012FEF30E040E050E00E94080CA401CA
:1013900093010E945C0CC90181509F4F18161906D9
:1013A0001CF4522E5A9403C055245394521A60E8E8
:1013B00074E88EE190E0A40193010E945C0C21503E
:1013C000304040405040CA01B90122E030E040E0E6
:1013D00050E00E945C0C209530954095509583E03C
:1013E000220F331F441F551F8A95D1F760E072E129
:1013F0008AE790E00E945C0CCA01B9012FEF30E04F
:1014000040E050E00E94080CA40193010E945C0C93
:10141000C90181509F4F181619061CF4822F815064
:1014200002C081E0821B851500F5E885F98581E021
:1014300090E00A8802C0880F991F0A94E2F780831F
:1014400060E874E88EE190E0A40193010E945C0CD6
:101450002150304040405040CA01B90122E030E004
:1014600040E050E00E945C0C04C0E885F9851082E1
:101470009501EC81FD813083EE81FF812083EA8537
:10148000FB85208141E050E0CA010E8402C0880F34
:10149000991F0A94E2F7282B2083EA85FB85208197
:1014A000CA010F8402C0880F991F0A94E2F7282B03
:1014B0002083EA85FB858081088802C0440F551F80
:1014C0000A94E2F7842B8083DF91CF911F910F91D3
:1014D000FF90EF90DF90CF90BF90AF909F908F9054
:1014E0007F906F905F900895DC011296ED91FC91D2
:1014F0001397E058FF4F8191919180589F4F208121
:101500003181821B930B60E870E00E94270C0895E4
:10151000CF93DF93DC011296ED91FC911397EF01CD
:10152000CE57DF4F48815981E058FF4F808191812C
:10153000E058F0408417950719F42FEF3FEF0CC0E7
:10154000E40FF51F2081CA01019660E870E00E9457
:10155000270C9983888330E0C901DF91CF910895EA
:10156000FC01A085B18521898C9190E0022E02C0FA
:10157000959587950A94E2F780FFF6CF0484F58568
:10158000E02D608308958BE091E09093C1018093FA
:10159000C0018CE391E09093C3018093C20185EC7C
:1015A00090E09093C5018093C40184EC90E0909307
:1015B000C7018093C60180EC90E09093C9018093AD
:1015C000C80181EC90E09093CB018093CA0186EC36
:1015D00090E09093CD018093CC0184E08093CE0184
:1015E00083E08093CF0187E08093D00185E08093F2
:1015F000D10181E08093D20108950F931F93CF937F
:10160000DF938C01EB0109C02196D801ED91FC918B
:101610000190F081E02DC801099568816623A1F74A
:10162000DF91CF911F910F910895EF92FF920F9349
:101630001F93CF93DF938C017B01EA010CC0D7018C
:101640006D917D01D801ED91FC910190F081E02D2B
:10165000C80109952197209791F7DF91CF911F91AC
:101660000F91FF90EF9008952F923F924F925F92CB
:101670006F927F928F929F92AF92BF92CF92DF92A2
:10168000EF92FF920F931F93DF93CF93CDB7DEB707
:10169000A0970FB6F894DEBF0FBECDBF1C016A0144
:1016A0007B01411551056105710549F4DC01ED919E
:1016B000FC910190F081E02D60E3099554C08824ED
:1016C00099245401422E55246624772401E010E029
:1016D0000C0F1D1F080D191DC701B601A3019201B2
:1016E0000E943A0CF80160830894811C911CA11C93
:1016F000B11CC701B601A30192010E943A0CC901B5
:10170000DA016C017D01C114D104E104F104F1F6A8
:1017100081E0E82EF12CEC0EFD1EE80CF91C3E01D8
:101720000894611C711CD501C4010197A109B1097C
:101730006C01C818D90814C0F601EE0DFF1D6081B8
:101740006A3010F4605D01C0695CD101ED91FC91DB
:101750000190F081E02DC10109950894E108F1089C
:101760006E147F0449F7A0960FB6F894DEBF0FBE43
:10177000CDBFCF91DF911F910F91FF90EF90DF9040
:10178000CF90BF90AF909F908F907F906F905F9021
:101790004F903F902F900895EF92FF920F931F93D9
:1017A000CF93DF93EC017A018B0177FF0FC0E881C3
:1017B000F9810190F081E02D6DE209951095009579
:1017C000F094E094E11CF11C011D111DCE01B80143
:1017D000A7012AE00E94340BDF91CF911F910F9156
:1017E000FF90EF900895DC012115310541F4ED9152
:1017F000FC910190F081E02D642F099508952A3025
:10180000310519F40E94CC0B08950E94340B089501
:10181000629FD001739FF001829FE00DF11D649FD4
:10182000E00DF11D929FF00D839FF00D749FF00D60
:10183000659FF00D9927729FB00DE11DF91F639F01
:10184000B00DE11DF91FBD01CF011124089597FBD3
:10185000092E07260AD077FD04D049D006D00020F3
:101860001AF4709561957F4F0895F6F790958195DC
:101870009F4F0895A1E21A2EAA1BBB1BFD010DC0AC
:10188000AA1FBB1FEE1FFF1FA217B307E407F50730
:1018900020F0A21BB30BE40BF50B661F771F881F0C
:1018A000991F1A9469F760957095809590959B01A2
:1018B000AC01BD01CF01089597FB092E05260ED07E
:1018C00057FD04D0D7DF0AD0001C38F4509540955E
:1018D000309521953F4F4F4F5F4F0895F6F7909504
:1018E0008095709561957F4F8F4F9F4F0895AA1BEC
:1018F000BB1B51E107C0AA1FBB1FA617B70710F0FB
:10190000A61BB70B881F991F5A95A9F7809590952C
:10191000BC01CD010895EE0FFF1F0590F491E02D5D
:061920000994F894FFCFCA
:101926002000D70100000100000000B00AFD0A15E2
:021936000B00A4
:00000001FF
