:100000000C945C000C943D070C946A070C948400DB
:100010000C9484000C9484000C9484000C94840050
:100020000C9484000C9484000C9484000C94840040
:100030000C9484000C9484000C9484000C94840030
:100040000C9497070C9484000C94DD090C948400A4
:100050000C9484000C9484000C9484000C94840010
:100060000C94C9020C948400000024272A00002567
:10007000282B000023262904040404040404040299
:100080000202020202030303030303010204081035
:100090002040800102040810200102040810200002
:1000A0000000070002010000030406000000000039
:1000B00000000000C801530611241FBECFEFD4E09A
:1000C000DEBFCDBF11E0A0E0B1E0ECE0F5E102C0A1
:1000D00005900D92AE30B107D9F711E0AEE0B1E076
:1000E00001C01D92A93CB107E1F710E0C8EBD0E0D8
:1000F00004C02297FE010E94800AC43BD107C9F7C1
:100100000E944C060C94840A0C9400000F931F93D9
:10011000CF93DF93689F8001699F100D789F100D2A
:100120001124C8010E94A200EC01009729F0A80147
:1001300060E070E00E94A401CE01DF91CF911F9199
:100140000F910895CF93DF93BC018230910510F495
:1001500062E070E0A091C701B091C801ED01E0E05C
:10016000F0E040E050E021C0888199818617970730
:1001700069F48A819B81309719F09383828304C04C
:100180009093C8018093C701FE0134C068177907B6
:1001900038F44115510519F08417950708F4AC019E
:1001A000FE018A819B819C01E9012097E9F64115B6
:1001B0005105A9F1CA01861B970B049708F4BA01EF
:1001C000E0E0F0E02AC08D919C911197841795078B
:1001D000F9F46417750781F412968D919C91139729
:1001E000309719F09383828304C09093C801809361
:1001F000C701FD0132964CC0CA01861B970BFD0159
:10020000E80FF91F6193719302978D939C9340C0FF
:10021000FD01828193819C01D9011097A1F6809103
:10022000C5019091C601892B41F480910201909102
:1002300003019093C6018093C50140910401509140
:1002400005014115510541F44DB75EB7809100019C
:1002500090910101481B590B2091C5013091C601B5
:10026000CA01821B930B8617970780F0AB014E5F84
:100270005F4F8417950750F0420F531F5093C601EC
:100280004093C501F9016193719302C0E0E0F0E091
:10029000CF01DF91CF910895CF93DF93009709F4B9
:1002A00050C0EC0122971B821A82A091C701B09125
:1002B000C801109709F140E050E0AC17BD0708F104
:1002C000BB83AA83FE0121913191E20FF31FAE1788
:1002D000BF0779F48D919C911197280F391F2E5FDC
:1002E0003F4F3983288312968D919C9113979B835E
:1002F0008A834115510571F4D093C801C093C70199
:1003000020C012968D919C911397AD01009711F02A
:10031000DC01D3CFFA01D383C28321913191E20F63
:10032000F31FCE17DF0769F488819981280F391FE1
:100330002E5F3F4FFA01318320838A819B81938313
:100340008283DF91CF910895DC0101C06D9341500C
:100350005040E0F7089581E0809317016093120107
:10036000109215011092160108959091100180913C
:100370001101981710F080E00895E0910E01F091BE
:100380000F01E90FF11D80819F5F90931001089587
:100390000895DF93CF930F92CDB7DEB76983809135
:1003A00017018823A9F0809116018032B0F4809162
:1003B0001501E0911301F0911401E80FF11D608324
:1003C000809115018F5F809315018093160105C000
:1003D00061E0CE0101960E94AC020F90CF91DF91B7
:1003E0000895609113017091140121E0409116016C
:1003F000809112010E94670210921501109216015D
:10040000109217010895862F413208F040E2609162
:100410000E0170910F010E94310210921001809321
:100420001101089561E070E080E290E00E94860092
:1004300080930E0190930F01109210011092110100
:1004400061E070E080E290E00E94860080931301FA
:100450009093140110921501109216010E944B0402
:100460000895982F413210F040E02FC0809119017B
:100470008823E1F781E0809319018FEF80932A01AF
:100480001092210140932201990F916090931A01DB
:1004900085EE8093BC00809119018130E1F3809159
:1004A0002101841710F440912101A0911F01B09106
:1004B000200120E030E007C0FB01E20FF31F8D9127
:1004C00080832F5F3F4F2417B8F3842F08951F9325
:1004D000582F122F413210F081E03CC08091190159
:1004E0008823E1F782E0809319018FEF80932A013E
:1004F0001092210140932201A0911F01B09120018F
:10050000FB0102C081918D938E2F861B8417D0F33F
:10051000852F90E0880F991F80931A0185EE8093B4
:10052000BC00112321F0809119018230E1F3809108
:100530002A018F3F11F480E00DC080912A018032A2
:1005400011F482E007C080912A01803311F084E029
:1005500001C083E01F910895482F613210F081E0BF
:10056000089580911901843011F082E0089560931C
:100570002601A0912301B0912401842F9C01F9014F
:1005800002C081918D938E2F841B8617D0F380E05B
:1005900008951F920F920FB60F9211242F933F933D
:1005A0004F935F936F937F938F939F93AF93BF937B
:1005B000EF93FF938091B90090E0887F9070803630
:1005C000910509F4E2C081369105CCF58832910598
:1005D00009F47BC089329105B4F48031910509F4A6
:1005E0006FC0813191053CF4009709F438C1089738
:1005F00009F040C165C08831910509F466C0809753
:1006000009F038C17FC08034910509F4A3C081345A
:10061000910544F48033910509F47FC0C89709F02F
:1006200029C186C08035910509F486C088359105B9
:1006300009F495C08834910509F01CC19EC0883921
:10064000910509F404C189399105ECF488379105C5
:1006500009F49BC0893791054CF48836910509F45B
:1006600094C08037910509F005C18FC08838910585
:1006700009F4EDC08039910509F48DC080389105E9
:1006800009F0F8C088C0803B910509F4B2C0813BF5
:1006900091054CF4803A910509F491C0883A91058E
:1006A00009F0E8C0A6C0803C910509F4D4C0883C9C
:1006B000910509F4D0C0883B910509F0DBC0B1C0B9
:1006C00080911A018093BB00C0C09091210180915C
:1006D0002201981778F490912101E0911F01F09187
:1006E0002001E90FF11D80818093BB009F5F9093F3
:1006F0002101ABC085ED8093BC008091BC0084FDDE
:10070000FCCFB6C080E280932A0185ED8093BC00C7
:100710008091BC0084FDFCCFABC080E380932A01B4
:1007200085ED8093BC008091BC0084FDFCCFA0C00F
:1007300088E380932A018FC0809121019091BB00B2
:10074000E0911F01F0912001E80FF11D90838F5F70
:1007500080932101909121018091220174C08091A8
:1007600021019091BB00E0911F01F0912001E80F61
:10077000F11D90838F5F8093210185ED8093BC00F4
:100780008091BC0084FDFCCF73C083E0809319018D
:10079000109229015AC080912901803208F057C077
:1007A000809129019091BB00E0912701F0912801EF
:1007B000E80FF11D90838F5F8093290146C08091DF
:1007C0002901803248F480912901E0912701F091BC
:1007D0002801E80FF11D108260912901E0911D01AF
:1007E000F0911E0170E080912701909128010995F8
:1007F00032C084E0809319011092250110922601E5
:10080000E0911B01F0911C0109958091260188233C
:1008100041F481E080932601E0912301F0912401CD
:10082000108290912501E0912301F0912401E90FBC
:10083000F11D80818093BB009F5F90932501909173
:10084000250180912601981710F485EC01C085E8F8
:100850008093BC000FC085EC8093BC0009C010924F
:100860002A0185ED8093BC008091BC0084FDFCCF03
:1008700010921901FF91EF91BF91AF919F918F91CC
:100880007F916F915F914F913F912F910F900FBE8C
:100890000F901F90189510921901449A459AE9EB10
:1008A000F0E080818E7F808380818D7F808388E4EB
:1008B0008093B80085E48093BC0061E070E080E242
:1008C00090E00E94860080931F019093200161E0D8
:1008D00070E080E290E00E94860080932301909374
:1008E000240161E070E080E290E00E948600809345
:1008F00027019093280108951EBC0DB407FEFDCF7B
:100900003EB51EBC0DB407FEFDCF2EB51EBC0DB40A
:1009100007FEFDCF4EB51EBC0DB407FEFDCFEEB5F4
:10092000942F80E0532F40E030E0422B532B60E0C7
:1009300070E0BA0155274427F0E08E2B9F2BA0E0F2
:10094000B0E0480F591F6A1F7B1F8FE291E00E94A1
:10095000640608951F9380912D01882339F488E15E
:1009600091E00E94120281E080932D011EBC0DB423
:1009700007FEFDCF6EB588E191E00E94AB011EBC81
:100980000DB407FEFDCF1EB50AC01EBC0DB407FE98
:10099000FDCF6EB588E191E00E94C901115011238D
:1009A000A1F788E191E00E94F101269A2E982E9AF3
:1009B0002E988EBD0DB407FEFDCF8EB51F91089504
:1009C0000F931F9380912D01882339F488E191E0E2
:1009D0000E94120281E080932D011EBC0DB407FE1F
:1009E000FDCF6EB51EBC0DB407FEFDCF0EB5402F7A
:1009F00088E191E00E940302182F269A2E982E9AE1
:100A00002E988EBD0DB407FEFDCF8EB513C01123F9
:100A100059F088E191E00E94B5018EBD0DB407FE4A
:100A2000FDCF8EB5115005C01EBC0DB407FEFDCF25
:100A30008EB50150002359F71F910F91089540E0A2
:100A400051EE60E070E08FE291E00E94640660E0A9
:100A50008AE00E94B70860E08BE00E94B70861E07E
:100A60008CE00E94B70860E08DE00E94B7088CE43B
:100A70008CBD8DB58EB508950F931F931EBC0DB41C
:100A800007FEFDCF1EB51EBC0DB407FEFDCF0EB593
:100A900061E0812F0E94B708013011F461E003C0CA
:100AA000002321F460E0812F0E94D5081F910F914F
:100AB00008951F931EBC0DB407FEFDCF1EB560E068
:100AC000812F0E94B708812F0E942009019731F4DD
:100AD00081E08EBD0DB407FEFDCF04C01EBC0DB479
:100AE00007FEFDCF8EB51F9108950F931F931EBC77
:100AF0000DB407FEFDCF0EB51EBC0DB407FEFDCF35
:100B00001EB561E0802F0E94B708612F70E0802F32
:100B10000E945F081F910F9108951F931EBC0DB492
:100B200007FEFDCF1EB560E0812F0E94B708812F20
:100B30000E944108269A2E982E9A2E989EBD0DB49A
:100B400007FEFDCF9EB58EBD0DB407FEFDCF8EB561
:100B50001F91089580912C01882329F090912E01F6
:100B600010922C0122C08FE291E00E94610688233E
:100B700011F490E01AC08FE291E00E945E06982F77
:100B8000882319F410922E010CC08C3531F4809317
:100B90002E0181E080932C0108C08F3F31F48093B7
:100BA0002E0181E080932C019CE59EBD0DB407FED3
:100BB000FDCF4EB580912B01882309F45BC01092C4
:100BC0002B01413619F40E948D050895413419F422
:100BD0000E9475050895423619F40E947C04089518
:100BE000443619F40E9459050895443419F40E94BA
:100BF0003C050895493619F40E94E00408954934EB
:100C000019F40E94AA040895423761F41EBC0DB481
:100C100007FEFDCFEEB5F0E080818EBD0DB407FE7E
:100C2000FDCF16C0423569F41EBC0DB407FEFDCFE2
:100C3000EEB51EBC0DB407FEFDCF8EB5F0E080838F
:100C40000895463739F488E08EBD0DB407FEFDCF18
:100C50008EB50895483721F488E0809360000895A8
:100C600050E060E070E020E030E08FE291E00E9430
:100C7000280708954C3521F481E080932B010895D5
:100C8000442349F050E060E070E020E030E08FE283
:100C900091E00E94280708950E9407080E941F05FE
:100CA0000E94AA05FDCF8BE091E0909330018093E4
:100CB0002F010895862F0E94A50908950E94BE095C
:100CC00008950E94AD090895CB01BA010E946C09F4
:100CD00008952F923F924F925F926F927F928F92E0
:100CE0009F92AF92BF92CF92DF92EF92FF920F93BB
:100CF0001F93DF93CF93CDB7DEB7A0970FB6F894CD
:100D0000DEBF0FBECDBF1C016A017B01411551053D
:100D10006105710549F4DC01ED91FC910190F081D0
:100D2000E02D60E3099554C0882499245401422E93
:100D300055246624772401E010E00C0F1D1F080DD8
:100D4000191DC701B601A30192010E942D0AF801E5
:100D500060830894811C911CA11CB11CC701B601C1
:100D6000A30192010E942D0AC901DA016C017D01E3
:100D7000C114D104E104F104F1F681E0E82EF12C74
:100D8000EC0EFD1EE80CF91C3E010894611C711C60
:100D9000D501C4010197A109B1096C01C818D9088E
:100DA00014C0F601EE0DFF1D60816A3010F4605D25
:100DB00001C0695CD101ED91FC910190F081E02DC1
:100DC000C10109950894E108F1086E147F0449F700
:100DD000A0960FB6F894DEBF0FBECDBFCF91DF91C6
:100DE0001F910F91FF90EF90DF90CF90BF90AF9049
:100DF0009F908F907F906F905F904F903F902F903B
:100E00000895EF92FF920F931F93CF93DF93EC011E
:100E10007A018B0177FF0FC0E881F9810190F081A1
:100E2000E02D6DE2099510950095F094E094E11C99
:100E3000F11C011D111D2AE0B801A701CE010E947D
:100E40006906DF91CF911F910F91FF90EF90089568
:100E5000DC012115310541F4ED91FC910190F08107
:100E6000E02D642F099508952A30310519F40E9468
:100E7000010708950E94690608951F920F920FB608
:100E80000F9211242F933F934F935F936F937F9310
:100E90008F939F93AF93BF93EF93FF938091310113
:100EA00090913201892B29F0E0913101F0913201CA
:100EB0000995FF91EF91BF91AF919F918F917F9194
:100EC0006F915F914F913F912F910F900FBE0F90B7
:100ED0001F9018951F920F920FB60F9211242F9307
:100EE0003F934F935F936F937F938F939F93AF93B2
:100EF000BF93EF93FF938091330190913401892B3D
:100F000029F0E0913301F09134010995FF91EF91BF
:100F1000BF91AF919F918F917F916F915F914F9111
:100F20003F912F910F900FBE0F901F9018951F9219
:100F30000F920FB60F9211242F938F939F93AF931D
:100F4000BF938091350190913601A0913701B09106
:100F500038010196A11DB11D809335019093360192
:100F6000A0933701B09338018091390190913A01F3
:100F7000A0913B01B0913C018050904CAF4FBF4FCE
:100F80008093390190933A01A0933B01B0933C01C7
:100F900027C08091390190913A01A0913B01B09115
:100FA0003C0180549F41A040B04080933901909310
:100FB0003A01A0933B01B0933C0180913D01909197
:100FC0003E01A0913F01B09140010196A11DB11DCC
:100FD00080933D0190933E01A0933F01B093400167
:100FE0008091390190913A01A0913B01B0913C016F
:100FF00081549F41A040B04060F6BF91AF919F9156
:101000008F912F910F900FBE0F901F90189578948D
:1010100084B5826084BD84B5816084BD85B58260FD
:1010200085BD85B5816085BDEEE6F0E0808181609B
:101030008083E1E8F0E0808182608083808181604C
:101040008083E0E8F0E0808181608083E1EBF0E084
:10105000808184608083E0EBF0E080818160808328
:10106000EAE7F0E080818460808380818260808311
:101070008081816080838081806880831092C1003C
:1010800008958F70909106019295990F990F907C19
:10109000982B90937C0080917A00806480937A00F2
:1010A00080917A0086FDFCCF2091780040917900F4
:1010B000942F80E030E0282B392BC90108951F932D
:1010C000CF93DF93182FEB0161E00E94B708E12F67
:1010D000F0E0E156FF4F8491833051F4809180001D
:1010E000806880938000D0938900C09388003BC0C3
:1010F000843051F480918000806280938000D0938E
:101100008B00C0938A002FC0813039F4209729F1D9
:1011100084B5806884BDC7BD26C0823039F420976D
:10112000E1F084B5806284BDC8BD1DC0863041F445
:101130008091B00080688093B000C093B30013C06A
:10114000873041F48091B00080628093B000C093FA
:10115000B40009C0C038D10514F460E001C061E0FA
:10116000812F0E94D508DF91CF911F910895282FDC
:1011700030E0C90185579F4FFC01949129583F4F9A
:10118000F9018491882381F0E82FF0E0E859FF4FBE
:10119000E491F0E0662329F480819095892380838F
:1011A00008958081892B80830895482F50E0CA01DB
:1011B00081569F4FFC012491CA0185579F4FFC0126
:1011C000949149585F4FFA0134913323C1F122239E
:1011D00031F1233021F4809180008F7705C02430D5
:1011E00031F4809180008F7D8093800018C0213081
:1011F00019F484B58F7704C0223021F484B58F7D33
:1012000084BD0DC0263021F48091B0008F7705C0D9
:10121000273029F48091B0008F7D8093B000E32FB8
:10122000F0E0E359FF4FE491F0E0662329F4808178
:1012300090958923808308958081892B80830895E8
:10124000482F50E0CA0181569F4FFC012491CA01EA
:1012500085579F4FFC01949149585F4FFA01349193
:10126000332319F420E030E035C0222331F123305C
:1012700021F4809180008F7705C0243031F4809173
:1012800080008F7D8093800018C0213019F484B5D0
:101290008F7704C0223021F484B58F7D84BD0DC0CA
:1012A000263021F48091B0008F7705C0273029F4D3
:1012B0008091B0008F7D8093B000E32FF0E0EE5876
:1012C000FF4FE491F0E0808120E030E0892311F0CD
:1012D00021E030E0C9010895EF92FF920F931F9330
:1012E0007B018C0122E030E040E050E00E944F0A98
:1012F000205E3E45484F5F4FCA01B901A8019701E2
:101300000E944F0AC901DA010197A109B109292FE9
:101310003A2F4B2F552747FD5A950196A11DB11D18
:101320002093C50081508093C400E1ECF0E08081FF
:1013300080618083808188608083808180688083F1
:101340001F910F91FF90EF900895982F8091C0000A
:1013500085FFFCCF9093C600089580914101909144
:10136000420180589F4F2091430130914401821BDC
:10137000930B60E870E00E941A0A089540914301BF
:101380005091440180914101909142018417950749
:1013900019F42FEF3FEF0FC0FA01EB5BFE4F2081F6
:1013A000CA01019660E870E00E941A0A9093440115
:1013B0008093430130E0C90108951F920F920FB648
:1013C0000F9211242F933F934F935F936F937F93CB
:1013D0008F939F93AF93BF93EF93FF934091C6007A
:1013E000E0914101F0914201CF01019660E870E087
:1013F0000E941A0A9C018091430190914401281790
:10140000390739F0EB5BFE4F408330934201209364
:101410004101FF91EF91BF91AF919F918F917F918A
:101420006F915F914F913F912F910F900FBE0F9051
:101430001F90189597FB092E07260AD077FD04D038
:1014400049D006D000201AF4709561957F4F089519
:10145000F6F7909581959F4F0895A1E21A2EAA1B49
:10146000BB1BFD010DC0AA1FBB1FEE1FFF1FA21754
:10147000B307E407F50720F0A21BB30BE40BF50B51
:10148000661F771F881F991F1A9469F760957095DA
:10149000809590959B01AC01BD01CF01089597FB0C
:1014A000092E05260ED057FD04D0D7DF0AD0001C28
:1014B00038F450954095309521953F4F4F4F5F4FF1
:1014C0000895F6F790958095709561957F4F8F4FB1
:1014D0009F4F0895AA1BBB1B51E107C0AA1FBB1F4A
:1014E000A617B70710F0A61BB70B881F991F5A95B0
:1014F000A9F780959095BC01CD010895EE0FFF1FCF
:0C1500000590F491E02D0994F894FFCFC1
:0E150C002000C901000001000000005A060086
:00000001FF
