:100000000C9464000C948C000C948C000C948C0068
:100010000C948C000C948C000C948C000C948C0030
:100020000C948C000C948C000C948C000C941F038A
:100030000C948C000C948C000C948C000C948C0010
:100040000C948A0B0C948C000C94050E0C94300EBE
:100050000C948C000C948C000C948C000C948C00F0
:100060000C94FC040C948C00000000002400270079
:100070002A0000000000250028002B0000000000DE
:1000800023002600290004040404040404040202DA
:100090000202020203030303030301020408102007
:1000A0004080010204081020010204081020000012
:1000B0000007000201000003040600000000000029
:1000C0000000F90320075C0E11241FBECFEFD4E01F
:1000D000DEBFCDBF11E0A0E0B1E0ECEFF0E202C086
:1000E00005900D92A235B107D9F711E0A2E5B1E074
:1000F00001C01D92A03FB107E1F710E0C8ECD0E0CD
:1001000004C02297FE010E947810C23CD107C9F7B3
:100110000E946F0E0C947C100C9400000F931F93A0
:10012000CF93DF93689F8001699F100D789F100D1A
:100130001124C8010E94AA00EC01009729F060E098
:1001400070E0A8010E94AC01CE01DF91CF911F9118
:100150000F910895CF93DF93BC018230910510F485
:1001600062E070E0A091EE01B091EF01ED01E0E0FE
:10017000F0E040E050E021C0888199818617970720
:1001800069F48A819B81309719F09383828304C03C
:100190009093EF018093EE01FE0134C06817790758
:1001A00038F44115510519F08417950708F4AC018E
:1001B000FE018A819B819C01E9012097E9F64115A6
:1001C0005105A9F1CA01861B970B049708F4BA01DF
:1001D000E0E0F0E02AC08D919C911197841795077B
:1001E000F9F46417750781F412968D919C91139719
:1001F000309719F09383828304C09093EF0180932A
:10020000EE01FD0132964CC0CA01861B970BFD0121
:10021000E80FF91F6193719302978D939C9340C0EF
:10022000FD01828193819C01D9011097A1F68091F3
:10023000EC019091ED01892B41F4809102019091A4
:1002400003019093ED018093EC01409104015091E2
:1002500005014115510541F44DB75EB7809100018C
:1002600090910101481B590B2091EC013091ED0157
:10027000CA01821B930B8617970780F0AB014E5F74
:100280005F4F8417950750F0420F531F5093ED01B5
:100290004093EC01F9016193719302C0E0E0F0E05A
:1002A000CF01DF91CF910895CF93DF93009709F4A9
:1002B00050C0EC0122971B821A82A091EE01B091EE
:1002C000EF01109709F140E050E0AC17BD0708F1CD
:1002D000BB83AA83FE0121913191E20FF31FAE1778
:1002E000BF0779F48D919C911197280F391F2E5FCC
:1002F0003F4F3983288312968D919C9113979B834E
:100300008A834115510571F4D093EF01C093EE013A
:1003100020C012968D919C911397AD01009711F01A
:10032000DC01D3CFFA01D383C28321913191E20F53
:10033000F31FCE17DF0769F488819981280F391FD1
:100340002E5F3F4FFA01318320838A819B81938303
:100350008283DF91CF910895DC0101C06D934150FC
:100360005040E0F70895FC01809152018C3090F4E8
:1003700080838F5F80935201815090E0FC01EE0FEB
:10038000FF1FE80FF91FED5AFE4F8CED95E09283A9
:10039000818308958FEF80830895DC018C9190E034
:1003A000FC01EE0FFF1FE80FF91FED5AFE4F808191
:1003B0008F7B80838C916CE00E94061090E0AC01F2
:1003C000440F551F480F591F440F551F440F551F09
:1003D00020E030E0C901840F951FFC01EE0FFF1FE4
:1003E000E80FF91FED5AFE4F808186FD05C02F5F93
:1003F0003F4F2C30310571F70895FC0130813C30BE
:1004000078F58181992787FD909548E850E0481B51
:10041000590B440F551F440F551F6417750784F07F
:100420008281992787FD909548E552E0481B590B3A
:10043000440F551F440F551F641775070CF4AB018B
:100440002FB7F894832F90E0FC01EE0FFF1FE80F09
:10045000F91FED5AFE4F42505040528341832FBF47
:100460000895AF92BF92CF92DF92EF92FF920F93D7
:100470001F93CF93DF93EC019B0182E060327807FA
:100480000CF048C077FF03C020E030E005C0653BBA
:10049000710514F024EB30E000D000D0B9018827BA
:1004A00077FD8095982F2981332727FD3095E8E83F
:1004B000AE2EB12CA21AB30AAA0CBB1CAA0CBB1CF0
:1004C000CC24B7FCC094DC2CEA81FF27E7FDF09533
:1004D00028E532E02E1B3F0B220F331F220F331F64
:1004E000442737FD4095542FEDB7FEB72183328363
:1004F0004383548320E030E040E050E004EBE02E02
:10050000F12C012D112D0E949E0F9B010F900F9039
:100510000F900F90CE01B9010E94FD01DF91CF91A4
:100520001F910F91FF90EF90DF90CF90BF90AF9011
:100530000895CF92DF92EF92FF921F93CF93DF93B4
:10054000EC01162F7A01690188818C3008F064C0B3
:10055000862F61E00E94C30C888190E0FC01EE0FC1
:10056000FF1FE80FF91FED5AFE4F1F738081807C3B
:10057000812B808380E292E08E199F0964E070E015
:100580000E941210698380E699E08C199D0964E04D
:1005900070E00E9412106A83A8818A2F6CE00E948A
:1005A0000610682F70E0AB01440F551F460F571F10
:1005B000440F551F440F551F20E030E0C901840F40
:1005C000951FFC01EE0FFF1FE80FF91FED5AFE4FBC
:1005D000808186FD15C02F5F3F4F2C30310571F7AC
:1005E00024C01092800082E08093810010928500E8
:1005F00010928400B19A80916F00826080936F00A6
:100600008A2F90E0FC01EE0FFF1FE80FF91FED5A53
:10061000FE4F8081806480838881DF91CF911F911C
:10062000FF90EF90DF90CF900895672BD1F2E8CF45
:1006300040E252E020E639E00E94990208951F92BC
:100640000F920FB60F9211242F933F934F935F9306
:100650006F937F938F939F93AF93BF93EF93FF938A
:100660008091770187FF05C0109285001092840069
:100670002BC020917701332727FD309580915201BF
:1006800090E02817390704F580917701992787FDB5
:100690009095FC01EE0FFF1FE80FF91FED5AFE4F7A
:1006A000808186FF11C080917701992787FD909501
:1006B000FC01EE0FFF1FE80FF91FED5AFE4F80817E
:1006C0008F7360E00E94E30C809177018F5F8093CD
:1006D000770120917701332727FD309580915201D2
:1006E00090E0281739070CF04EC0809177018C30CC
:1006F0000CF049C0209184003091850080917701F1
:10070000992787FD9095FC01EE0FFF1FE80FF91F59
:10071000ED5AFE4F81819281280F391F3093890055
:100720002093880080917701992787FD9095FC019F
:10073000EE0FFF1FE80FF91FED5AFE4F808186FF75
:100740002AC080917701992787FD9095FC01EE0FD3
:10075000FF1FE80FF91FED5AFE4F80818F7361E094
:100760000E94E30C18C080E29EE405C080918400E2
:1007700090918500049690938900809388008FEF74
:100780008093770108C08091840090918500845205
:100790009E4448F3EBCFFF91EF91BF91AF919F91B2
:1007A0008F917F916F915F914F913F912F910F901A
:1007B0000FBE0F901F90189581E080938101609388
:1007C0007C0110927F0110928001089590917A012E
:1007D00080917B01981710F080E00895E0917801F6
:1007E000F0917901E90FF11D80819F5F90937A016B
:1007F00008950895DF93CF930F92CDB7DEB7698345
:10080000809181018823A9F0809180018032B0F429
:1008100080917F01E0917D01F0917E01E80FF11D53
:10082000608380917F018F5F80937F01809380013F
:1008300005C0CE01019661E00E94DF040F90CF91C8
:10084000DF91089560917D0170917E0180917C011E
:100850004091800121E00E949A0410927F01109241
:100860008001109281010895862F60917801709126
:100870007901413208F040E20E94620410927A014C
:1008800080937B01089580E290E061E070E00E9437
:100890008E00809378019093790110927A011092E2
:1008A0007B0180E290E061E070E00E948E00809326
:1008B0007D0190937E0110927F01109280010E9431
:1008C0007E060895982F413210F040E031C08091AB
:1008D00083018823E1F781E0809383018FEF809388
:1008E000940110928B01415040938C014F5F990FFE
:1008F00091609093840185EE8093BC008091830188
:100900008130E1F380918B01841710F440918B01C9
:10091000A0918901B0918A0120E030E007C0FB017D
:10092000E20FF31F8D9180832F5F3F4F2417B8F3A1
:10093000842F08951F93582F122F413210F081E019
:100940003CC0809183018823E1F782E0809383019A
:100950008FEF8093940110928B0140938C01A091B2
:100960008901B0918A01FB0102C081918D938E2F84
:10097000861B8417D0F3852F90E0880F991F8093F2
:10098000840185EE8093BC00112321F080918301C6
:100990008230E1F3809194018F3F11F480E00DC02B
:1009A00080919401803211F482E007C0809194011B
:1009B000803311F084E001C083E01F910895482F37
:1009C000613210F081E0089580918301843011F04C
:1009D00082E0089560939001A0918D01B0918E0105
:1009E000842F9C01F90102C081918D938E2F841B6D
:1009F0008617D0F380E008951F920F920FB60F92E2
:100A000011242F933F934F935F936F937F938F9313
:100A10009F93AF93BF93EF93FF938091B90090E0C2
:100A2000887F90708036910509F4E2C08136910587
:100A3000CCF58832910509F47BC089329105B4F474
:100A40008031910509F46FC0813191053CF4009724
:100A500009F438C1089709F040C165C08831910593
:100A600009F466C0809709F038C17FC080349105D1
:100A700009F4A3C08134910544F48033910509F44D
:100A80007FC0C89709F029C186C08035910509F457
:100A900086C08835910509F495C08834910509F020
:100AA0001CC19EC08839910509F404C1893991059A
:100AB000ECF48837910509F49BC0893791054CF413
:100AC0008836910509F494C08037910509F005C175
:100AD0008FC08838910509F4EDC08039910509F47B
:100AE0008DC08038910509F0F8C088C0803B910521
:100AF00009F4B2C0813B91054CF4803A910509F4A8
:100B000091C0883A910509F0E8C0A6C0803C9105E3
:100B100009F4D4C0883C910509F4D0C0883B910504
:100B200009F0DBC0B1C0809184018093BB00C0C0DC
:100B300090918B0180918C01981778F490918B01A2
:100B4000E0918901F0918A01E90FF11D8081809384
:100B5000BB009F5F90938B01ABC085ED8093BC0081
:100B60008091BC0084FDFCCFB6C080E280939401EC
:100B700085ED8093BC008091BC0084FDFCCFABC0B0
:100B800080E38093940185ED8093BC008091BC004C
:100B900084FDFCCFA0C088E3809394018FC0809136
:100BA0008B019091BB00E0918901F0918A01E80FDF
:100BB000F11D90838F5F80938B0190918B018091C9
:100BC0008C0174C080918B019091BB00E0918901F0
:100BD000F0918A01E80FF11D90838F5F80938B0164
:100BE00085ED8093BC008091BC0084FDFCCF73C078
:100BF00083E080938301109293015AC08091930106
:100C0000803208F057C0809193019091BB00E09131
:100C10009101F0919201E80FF11D90838F5F809315
:100C2000930146C080919301803248F480919301F2
:100C3000E0919101F0919201E80FF11D1082609115
:100C40009301E0918701F091880180919101909149
:100C5000920170E0099532C084E080938301109284
:100C60008F0110929001E0918501F0918601099524
:100C700080919001882341F481E080939001E0917C
:100C80008D01F0918E01108290918F01E0918D0184
:100C9000F0918E01E90FF11D80818093BB009F5F71
:100CA00090938F0190918F0180919001981710F48B
:100CB00085EC01C085E88093BC000FC085EC809373
:100CC000BC0009C01092940185ED8093BC00809116
:100CD000BC0084FDFCCF10928301FF91EF91BF9186
:100CE000AF919F918F917F916F915F914F913F91C4
:100CF0002F910F900FBE0F901F90189510928301A7
:100D0000449A459AE9EBF0E080818E7F8083808170
:100D10008D7F808388E48093B80085E48093BC0055
:100D200080E290E061E070E00E948E008093890193
:100D300090938A0180E290E061E070E00E948E0072
:100D400080938D0190938E0180E290E061E070E0ED
:100D50000E948E008093910190939201089584E8FF
:100D600080937A001EBC0DB407FEFDCF8EB58F7048
:100D7000806680937C0083E88093B00081E080935C
:100D8000B10010926E0010926F0080917A00806422
:100D900080937A0090E080917A0086FDFCCF80916C
:100DA000790080917A00806480937A009F5F983008
:100DB00091F720E080917A0086FDFCCF9091790038
:100DC00080917A00806480937A009EBD0DB407FE06
:100DD000FDCF8EB5222321F48C3561F721E0EACFD7
:100DE000213039F7863429F708951EBC0DB407FE6B
:100DF000FDCF8EB58E3411F08E3621F48091C20075
:100E00008F7D07C0853411F0853659F48091C2007A
:100E100080628093C2008091C2008F7E8093C20066
:100E200008958F3411F08F3651F48091C2008062A2
:100E30008093C2008091C20080618093C2000895B7
:100E40000F931F9309E911E0C8010E94B301C80183
:100E500003960E94B301C80106960E94B301C8011F
:100E600009960E94B3011F910F910895EF92FF928E
:100E70000F931F93DF93CF93CDB7DEB7A0970FB635
:100E8000F894DEBF0FBECDBF1EBC0DB407FEFDCF74
:100E9000FEB480E28F1510F480E2F82E8E010F5F11
:100EA0001F4FF801E02E06C01EBC0DB407FEFDCF9B
:100EB0008EB581938E2F8E198F15B0F307C082EBFC
:100EC00091E0F80161918F010E94C20D802F8E196F
:100ED0008F15A8F3269A2E982E9A2E98FEBC0DB444
:100EE00007FEFDCF8EB5A0960FB6F894DEBF0FBEFD
:100EF000CDBFCF91DF911F910F91FF90EF9008959B
:100F00001EBC0DB407FEFDCF3EB51EBC0DB407FEE2
:100F1000FDCF2EB51EBC0DB407FEFDCF4EB51EBCD9
:100F20000DB407FEFDCFEEB5942F80E0532F40E0C7
:100F300030E0422B532B60E070E0BA015527442784
:100F4000F0E08E2B9F2BA0E0B0E0480F591F6A1FE6
:100F50007B1F82EB91E00E947F0D0895EF92FF923C
:100F60000F931F93CF93DF931EBC0DB407FEFDCFED
:100F7000FEB41EBC0DB407FEFDCFEEB420E030E0A1
:100F8000F901EB55FE4F8081F81689F4C901880FED
:100F9000991F820F931F87569E4F6E2D70E00E94FF
:100FA000310281E08EBD0DB407FEFDCF2EC02F5F54
:100FB0003F4F2430310521F720E030E0E901CB55E7
:100FC000DE4F88818823C1F48901000F111F020FB1
:100FD000131F07561E4FC8016F2D70E00E941803A3
:100FE000F882C8016E2D70E00E94310281E08EBD52
:100FF0000DB407FEFDCF09C02F5F3F4F24303105F0
:10100000E9F61EBC0DB407FEFDCF8EB5DF91CF9182
:101010001F910F91FF90EF900895FF920F931F93F0
:10102000CF93DF931EBC0DB407FEFDCFFEB405EADF
:1010300011E0C0E0D0E0F8018081F81659F4CE014B
:10104000880F991F8C0F9D1F87569E4F0E94CD01C0
:10105000F801108221960F5F1F4FC430D10559F758
:10106000DF91CF911F910F91FF9008951F93809171
:101070009701882339F482E891E00E94430481E0DB
:10108000809397011EBC0DB407FEFDCF6EB582E8BC
:1010900091E00E94DC031EBC0DB407FEFDCF1EB51F
:1010A0000AC01EBC0DB407FEFDCF6EB582E891E00C
:1010B0000E94FA0311501123A1F782E891E00E94E7
:1010C0002204269A2E982E9A2E988EBD0DB407FED5
:1010D000FDCF8EB51F9108950F931F9380919701B7
:1010E000882339F482E891E00E94430481E08093F0
:1010F00097011EBC0DB407FEFDCF6EB51EBC0DB42E
:1011000007FEFDCF0EB582E891E0402F0E94340427
:10111000182F269A2E982E9A2E988EBD0DB407FE63
:10112000FDCF8EB513C0112359F082E891E00E94E3
:10113000E6038EBD0DB407FEFDCF8EB5115005C080
:101140001EBC0DB407FEFDCF8EB50150002359F72C
:101150001F910F910895CF93DF9382EB91E040E0D0
:1011600052EC61E070E00E947F0DC0E0D0E082EBC5
:1011700091E065E50E94C20D2196C038D105B9F70E
:101180006AE070E080E090E00E94DE0B269A2E98E4
:101190002E9A2E981EBC0DB407FEFDCF8EB5DF91A2
:1011A000CF91089582EB91E040E051EE60E070E075
:1011B0000E947F0D8AE060E00E94C30C8BE060E03B
:1011C0000E94C30C8CE061E00E94C30C8DE060E0E3
:1011D0000E94C30C8CE48CBD8DB58EB508950F9321
:1011E0001F931EBC0DB407FEFDCF1EB51EBC0DB473
:1011F00007FEFDCF0EB5812F61E00E94C30C0130C8
:1012000019F4812F61E004C0002321F4812F60E0F4
:101210000E94E30C1F910F9108958F929F92BF92AD
:10122000CF92DF92EF92FF920F931F93DF93CF93B2
:10123000CDB7DEB7C054D0400FB6F894DEBF0FBEB6
:10124000CDBFDE011196E7E0F1E080E401900D9260
:101250008150E1F71EBC0DB407FEFDCFEEB48E2D1C
:1012600061E00E94C30C8E2D60E00E94E30C1EBC66
:101270000DB407FEFDCFBEB41EBC0DB407FEFDCFFE
:101280008EB5AE01465F5F4FFA0127E030E0682F70
:1012900070E0CB01022E02C0959587950A94E2F783
:1012A0008170808324503040CB01022E02C095957E
:1012B00087950A94E2F7817085832D5F3F4F3196C1
:1012C0002330310531F71EBC0DB407FEFDCF8EB5BE
:1012D000FE01749627E030E0682F70E0CB01022E0B
:1012E00002C0959587950A94E2F781708083245017
:1012F0003040CB01022E02C0959587950A94E2F703
:10130000817085832D5F3F4F31962330310531F752
:101310001EBC0DB407FEFDCF8EB5DE015E96FD014D
:1013200027E030E0682F70E0CB01022E02C09595D7
:1013300087950A94E2F78170808324503040CB0176
:10134000022E02C0959587950A94E2F781708583F5
:101350002D5F3F4F31962330310531F71EBC0DB460
:1013600007FEFDCF8EB5FE01B89627E030E0682F6E
:1013700070E0CB01022E02C0959587950A94E2F7A2
:101380008170808324503040CB01022E02C095959D
:1013900087950A94E2F7817085832D5F3F4F3196E0
:1013A0002330310531F71EBC0DB407FEFDCF8EB5DD
:1013B000FE01F29627E030E0682F70E0CB01022EAC
:1013C00002C0959587950A94E2F781708083245036
:1013D0003040CB01022E02C0959587950A94E2F722
:1013E000817085832D5F3F4F31962330310531F772
:1013F000FA0171E4872E912C8C0E9D1E238182812F
:101400002827818190818927282724833596E8150C
:10141000F905A1F7BE01625F7F4FFA0187859285CA
:1014200089279C918927918D8927968D89271F96D9
:101430009C911F97892754969C9154978927599678
:101440009C915997892795812191AF0192278927EE
:101450005E968C935E971196E617F707F1F6F8946F
:101460006E010894C11CD11C24C0F801F080F1E089
:10147000FF1619F48E2D60E002C08E2D61E00E94EF
:10148000E30C8CEF90E00E94080C81E0F81619F450
:101490008E2D61E002C08E2D60E00E94E30C8CEF87
:1014A00090E00E94080C0F5F1F4F08151905E9F620
:1014B000BA94BB2011F08601D8CF7894269A2E9842
:1014C0002E9A2E981EBC0DB407FEFDCF8EB5C05CC3
:1014D000DF4F0FB6F894DEBF0FBECDBFCF91DF91C7
:1014E0001F910F91FF90EF90DF90CF90BF909F9052
:1014F0008F9008951F931EBC0DB407FEFDCF1EB53F
:10150000812F60E00E94C30C812F0E94300D019753
:1015100031F481E08EBD0DB407FEFDCF04C01EBCCA
:101520000DB407FEFDCF8EB51F9108950F931F9345
:101530001EBC0DB407FEFDCF0EB51EBC0DB407FEDC
:10154000FDCF1EB5802F61E00E94C30C802F612F5C
:1015500070E00E946A0C1F910F9108951F931EBCAA
:101560000DB407FEFDCF1EB5812F60E00E94C30CB5
:10157000812F0E944C0C269A2E982E9A2E989EBD52
:101580000DB407FEFDCF9EB58EBD0DB407FEFDCF99
:101590008EB51F91089580919601882329F090912E
:1015A00098011092960122C082EB91E00E94DB0D1F
:1015B000882311F490E01AC082EB91E00E94E80DBC
:1015C000982F882319F4109298010CC08C3531F4AF
:1015D0008093980181E08093960108C08F3F31F499
:1015E0008093980181E0809396019CE59EBD0DB4A7
:1015F00007FEFDCF6EB580919501882309F47BC06D
:1016000010929501613619F40E94AE0A0895613472
:1016100019F40E94960A0895623619F40E94800710
:101620000895643619F40E947A0A0895643419F40E
:101630000E94EF080895653419F40E940D09089579
:10164000663619F40E94AF060895693619F40E94AF
:101650006C080895693419F40E94360808956E36AE
:1016600019F40E94AB080895603719F40E94F5063A
:101670000895623761F41EBC0DB407FEFDCFEEB5D0
:10168000F0E080818EBD0DB407FEFDCF25C0623530
:1016900069F41EBC0DB407FEFDCFEEB51EBC0DB443
:1016A00007FEFDCF8EB5F0E080830895633719F40F
:1016B0000E940D080895633519F40E94AE0708953D
:1016C000653719F40E9436070895663739F484E1C6
:1016D0008EBD0DB407FEFDCF8EB50895683721F499
:1016E00088E080936000089582EB91E040E050E054
:1016F0000E94560F08956C3521F481E08093950186
:101700000895662331F082EB91E040E050E00E94C2
:10171000560F08951F920F920FB60F9211242F9318
:101720003F934F935F936F937F938F939F93AF9369
:10173000BF932091AD013091AE014091AF01509126
:10174000B0017091B101DA01C9010296A11DB11D6C
:10175000672F6A5F6D3730F06D57DA01C901039664
:10176000A11DB11D6093B1018093AD019093AE01B5
:10177000A093AF01B093B0018091A9019091AA010B
:10178000A091AB01B091AC010196A11DB11D809358
:10179000A9019093AA01A093AB01B093AC01BF91B2
:1017A000AF919F918F917F916F915F914F913F91F9
:1017B0002F910F900FBE0F901F901895EF92FF92F0
:1017C0000F931F937B018C018FB7F8944091AD016B
:1017D0005091AE016091AF017091B0018FBF2FB7F2
:1017E000F8948091AD019091AE01A091AF01B091BC
:1017F000B0012FBF841B950BA60BB70BE816F9069B
:101800000A071B0760F71F910F91FF90EF90089553
:10181000019739F0019729F0880F991F01970197D7
:10182000F1F70895789484B5826084BD84B58160B1
:1018300084BD85B5826085BD85B5816085BDEEE6D8
:10184000F0E0808181608083E1E8F0E08081826067
:101850008083808181608083E0E8F0E08081816026
:101860008083E1EBF0E0808184608083E0EBF0E056
:10187000808181608083EAE7F0E0808184608083FA
:1018800080818260808380818160808380818068A4
:1018900080831092C10008958770909106019295FF
:1018A000990F990F907C982B90937C0080917A00EF
:1018B000806480937A0080917A0086FDFCCF20912D
:1018C000780040917900942F80E030E0282B392B6C
:1018D000C90108951F93CF93DF93182FEB0161E0A7
:1018E0000E94C30CE12FF0E0E255FF4F849183305A
:1018F00051F480918000806880938000D0938900AB
:10190000C09388003CC0843051F480918000806294
:1019100080938000D0938B00C0938A0030C08130C8
:1019200039F4209729F184B5806884BDC7BD27C0EC
:10193000823039F42097E1F084B5806284BDC8BD5F
:101940001EC0863041F48091B00080688093B00062
:10195000C093B30014C0873041F48091B00080621E
:101960008093B000C093B4000AC0C038D1051CF405
:10197000812F60E002C0812F61E00E94E30CDF91C3
:10198000CF911F910895282F30E0C90186569F4FAF
:10199000FC0194912A573F4FF9018491882391F0DB
:1019A000E82FF0E0EE0FFF1FE859FF4FA591B4912B
:1019B000662329F48C91909589238C9308958C91BA
:1019C000892B8C930895482F50E0CA0182559F4F70
:1019D000FC012491CA0186569F4FFC0194914A57FD
:1019E0005F4FFA0134913323D1F1222331F12330B7
:1019F00021F4809180008F7705C0243031F48091EC
:101A000080008F7D8093800018C0213019F484B548
:101A10008F7704C0223021F484B58F7D84BD0DC042
:101A2000263021F48091B0008F7705C0273029F44B
:101A30008091B0008F7D8093B000E32FF0E0EE0F37
:101A4000FF1FEE58FF4FA591B491662329F48C91A6
:101A5000909589238C9308958C91892B8C9308956C
:101A6000682F70E0CB0182559F4FFC012491CB0180
:101A700086569F4FFC0144916A577F4FFB0194911A
:101A8000992319F420E030E038C0222331F12330CB
:101A900021F4809180008F7705C0243031F480914B
:101AA00080008F7D8093800018C0213019F484B5A8
:101AB0008F7704C0223021F484B58F7D84BD0DC0A2
:101AC000263021F48091B0008F7705C0273029F4AB
:101AD0008091B0008F7D8093B000892F90E0880FB7
:101AE000991F84589F4FFC01A591B4918C9120E0DF
:101AF00030E0842311F021E030E0C90108950F9314
:101B00001F938C019A01AB01CA01B90160587B4750
:101B1000814E9F4FF2E0660F771F881F991FFA953D
:101B2000D1F7E3E0220F331F441F551FEA95D1F789
:101B30000E942510215030402093C4003093C500EE
:101B4000E0ECF0E0808182608083D8011496ED9112
:101B5000FC91159711A281A180A31296ED91FC91A1
:101B60001397118A8189808BE1ECF0E08081886095
:101B700080838081806180838081806880831F91E1
:101B80000F910895DC011496ED91FC91159790A1A9
:101B90009F5F9F7181A19817E9F3E90FF11D6083A1
:101BA0001496ED91FC91159790A38091C1008062ED
:101BB0008093C1000895DC011296ED91FC9113977A
:101BC0008089218990E04096821B91098F70089549
:101BD000FC012FB7F894A281B38150969C91509745
:101BE00051968C915197981711F4EFEF0BC05196C5
:101BF0008C9151978F5F8F70FD01E80FF11DE0818F
:101C000051968C932FBF8E2F08951F920F920FB66F
:101C10000F9211242F938F939F93EF93FF93209113
:101C2000C6009091C8019F5F9F708091C90198176D
:101C300031F48091C9018F5F8F708093C901E92FC2
:101C4000F0E0E854FE4F20839093C801FF91EF919C
:101C50009F918F912F910F900FBE0F901F9018950D
:101C60001F920F920FB60F9211248F939F93EF93B1
:101C7000FF939091EA018091EB01981731F48091E4
:101C8000C1008F7D8093C1000EC08091EB018F5FFA
:101C90008F718093EB01E091EB01F0E0E653FE4F92
:101CA00080818093C600FF91EF919F918F910F905B
:101CB0000FBE0F901F9018958BE491E09093B301A5
:101CC0008093B20188EB91E09093B5018093B401C9
:101CD0008AEC91E09093B7018093B60108950E9439
:101CE000120C0E94D2080E94CB0AFDCF0F931F93C3
:101CF000CF93DF938C01EB0109C02196D801ED91C0
:101D0000FC910190F081E02DC8010995688166235E
:101D1000A1F7DF91CF911F910F910895EF92FF925C
:101D20000F931F93CF93DF938C017B01EA010CC0CB
:101D3000D7016D917D01D801ED91FC910190F08169
:101D4000E02DC80109952197209791F7DF91CF9158
:101D50001F910F91FF90EF9008952F923F924F9215
:101D60005F926F927F928F929F92AF92BF92CF922B
:101D7000DF92EF92FF920F931F93DF93CF93CDB734
:101D8000DEB7A0970FB6F894DEBF0FBECDBF1C0123
:101D90006A017B01411551056105710549F440E374
:101DA00050E060E070E020E030E00E94680F56C034
:101DB000882499245401422E55246624772401E076
:101DC00010E00C0F1D1F080D191DC701B601A3015E
:101DD00092010E942510F80160830894811C911CD7
:101DE000A11CB11CC701B601A30192010E942510DC
:101DF000C901DA016C017D01C114D104E104F104CF
:101E0000F1F681E0E82EF12CEC0EFD1EE80CF91C39
:101E10003E010894611C711CD501C4010197A10900
:101E2000B1096C01C818D90816C0F601EE0DFF1DE6
:101E300040814A3010F4405D01C0495C552747FDA0
:101E40005095652F752FC10120E030E00E94680F8A
:101E50000894E108F1086E147F0439F7A0960FB6D4
:101E6000F894DEBF0FBECDBFCF91DF911F910F91D0
:101E7000FF90EF90DF90CF90BF90AF909F908F90AA
:101E80007F906F905F904F903F902F900895DC016E
:101E90002115310541F4ED91FC910190F081E02D87
:101EA000642F099508950E94AD0E0895EF92FF9258
:101EB0000F931F939A01E62EFF2400E010E0B80173
:101EC000A7010E94470F1F910F91FF90EF90089577
:101ED000EF92FF920F931F93CF93DF93EC017A0160
:101EE0008B012115310541F4E881F9810190F081E0
:101EF000E02D642F09951BC02A303105B1F477FF1E
:101F000010C04DE250E060E070E020E030E00E9460
:101F1000680F10950095F094E094E11CF11C011DF0
:101F2000111DCE01B801A7012AE00E94AD0EDF917C
:101F3000CF911F910F91FF90EF9008952F923F92B4
:101F40004F925F926F927F928F929F92AF92BF92C9
:101F5000CF92DF92EF92FF920F931F93DF93CF9375
:101F6000CDB7DEB73B014C0119012A016D897E898D
:101F70008F89988D6A197B098C099D09621A730AE9
:101F8000840A950AA40193010E94E70FE218F3085E
:101F900004091509A80197010E9447102A0D3B1D4D
:101FA0004C1D5D1DB901CA01CF91DF911F910F91A9
:101FB000FF90EF90DF90CF90BF90AF909F908F9069
:101FC0007F906F905F904F903F902F900895629F09
:101FD000D001739FF001829FE00DF11D649FE00D21
:101FE000F11D929FF00D839FF00D749FF00D659F82
:101FF000F00D9927729FB00DE11DF91F639FB00D81
:10200000E11DF91FBD01CF0111240895991B79E04D
:1020100004C0991F961708F0961B881F7A95C9F778
:102020008095089597FB092E07260AD077FD04D0E6
:1020300049D006D000201AF4709561957F4F08951D
:10204000F6F7909581959F4F0895A1E21A2EAA1B4D
:10205000BB1BFD010DC0AA1FBB1FEE1FFF1FA21758
:10206000B307E407F50720F0A21BB30BE40BF50B55
:10207000661F771F881F991F1A9469F760957095DE
:10208000809590959B01AC01BD01CF01089597FB10
:10209000092E05260ED057FD04D0D7DF0AD0001C2C
:1020A00038F450954095309521953F4F4F4F5F4FF5
:1020B0000895F6F790958095709561957F4F8F4FB5
:1020C0009F4F0895AA1BBB1B51E107C0AA1FBB1F4E
:1020D000A617B70710F0A61BB70B881F991F5A95B4
:1020E000A9F780959095BC01CD010895EE0FFF1FD3
:0C20F0000590F491E02D0994F894FFCFC6
:1020FC002000F001000001010101010101010101B9
:10210C0000000000010000000001000000000100C0
:10211C0000000001000000000100000000010000B0
:10212C0000000100000000010000000001000000A0
:10213C000001010101010000000000C20D760E8EAD
:02214C000E0083
:00000001FF
