:103800000C94341C0C94511C0C94511C0C94511CA1
:103810000C94511C0C94511C0C94511C0C94511C74
:103820000C94511C0C94511C0C94511C0C94511C64
:103830000C94511C0C94511C0C94511C0C94511C54
:103840000C94511C0C94511C0C94511C0C94511C44
:103850000C94511C0C94511C0C94511C0C94511C34
:103860000C94511C0C94511C11241FBECFEFD4E0BA
:10387000DEBFCDBF11E0A0E0B1E0E8E3FFE302C0AE
:1038800005900D92A230B107D9F712E0A2E0B1E0A5
:1038900001C01D92AD30B107E1F70E94861D0C9466
:1038A0009B1F0C94001C982F8091C00085FFFCCFBB
:1038B0009093C60008951F93282F992787FD909510
:1038C000807F907095958795959587959595879527
:1038D000959587958A304CF0982F995A822F8F7042
:1038E0008A304CF0182F195A08C0982F905D822FFB
:1038F0008F708A30BCF7182F105D892F0E94531CDF
:10390000812F0E94531C1F910895EF92FF920F93F5
:103910001F93EE24FF2487018091C00087FD17C00C
:103920000894E11CF11C011D111D81E0E81689E0DD
:10393000F8068DE3080780E0180770F3E0910401B2
:10394000F091050109958091C00087FFE9CF809132
:10395000C600992787FD90951F910F91FF90EF90DA
:1039600008950F931F930E94851C182F0E94531CCB
:103970000E94851C082F0E94531C11362CF01755ED
:1039800001363CF0075508C01033D4F3105301360C
:10399000CCF700330CF000531295107F100F812FDD
:1039A000992787FD90951F910F910895282F8823BF
:1039B00051F090E08091C00087FFFCCF8091C6005D
:1039C0009F5F2917B9F708951F93182F0E94851C30
:1039D000803269F0809103018F5F8093030185300D
:1039E00079F4E0910401F0910501099509C084E1A1
:1039F0000E94531C812F0E94531C80E10E94531C83
:103A00001F9108950E94851C803271F080910301FE
:103A10008F5F80930301853009F00895E0910401E0
:103A2000F09105010995089584E10E94531C80E1FD
:103A30000E94531C0895CF93DF93CDB7DEB7249730
:103A40000FB6F894DEBF0FBECDBF482F882309F410
:103A50004EC010920A0220E030E02D9A19821A829C
:103A60001B821C8289819A81AB81BC8180549F41D9
:103A7000A040B040A0F489819A81AB81BC810196BD
:103A8000A11DB11D89839A83AB83BC8389819A81EF
:103A9000AB81BC8180549F41A040B04060F32D9821
:103AA00019821A821B821C8289819A81AB81BC8116
:103AB00080549F41A040B040A0F489819A81AB819D
:103AC000BC810196A11DB11D89839A83AB83BC8300
:103AD00089819A81AB81BC8180549F41A040B040D4
:103AE00060F32F5F3F4F241708F4B7CF04C0109244
:103AF0000A0243E0B0CF20930A0224960FB6F8944E
:103B0000DEBF0FBECDBFDF91CF9108950F931F93FE
:103B1000CF93DF9384B7877F84BF809160008861F3
:103B2000809360001092600089E18093C40010923D
:103B3000C50088E18093C10086E08093C200509860
:103B4000589A259A83E00E941B1D0E94851C803391
:103B5000B1F18133B9F1803409F454C0813409F4EE
:103B60005AC0823409F469C0853409F46CC08035C8
:103B700031F1813521F1823511F1853509F469C0C2
:103B8000863509F471C0843609F475C0843709F4A8
:103B9000D0C0853709F424C1863709F44AC0809122
:103BA00003018F5F80930301853079F6E091040172
:103BB000F091050109950E94851C803351F60E9401
:103BC000021DC3CF0E94851C803249F784E10E9408
:103BD000531C81E40E94531C86E50E94531C82E51D
:103BE0000E94531C80E20E94531C89E40E94531CD3
:103BF00083E50E94531C80E50E94531C80E10E94D3
:103C0000531CA3CF0E94851C8638C8F20E94851CD5
:103C10000E94021D9ACF0E94851C803809F4F9C0C9
:103C2000813809F4FAC0823809F4FBC0883909F4F4
:103C3000ECC080E00E94E41C88CF84E10E94D61C86
:103C40000E94021D82CF85E00E94D61C0E94021DA8
:103C50007CCF0E94851C809306010E94851C809366
:103C600007010E94021D71CF84E00E94D61C80E0F3
:103C70000E94E41C6ACF0E94851C809309020E9466
:103C8000851C8093080280910C028E7F80930C0229
:103C90000E94851C853409F4C8C080910802909167
:103CA0000902892B89F0C0E0D0E008E011E00E9411
:103CB000851CF80181938F012196809108029091D3
:103CC0000902C817D90798F30E94851C803209F0B1
:103CD00066CF80910C0280FFC0C060910802709195
:103CE000090261157105F1F0A0910601B09107017B
:103CF0009D0140E050E0E8E0F1E0F999FECF32BDEF
:103D000021BD819180BDFA9AF99A4F5F5F4F2F5F75
:103D10003F4F4617570789F7A60FB71FB093070104
:103D2000A093060184E10E94531C80E10E94531C71
:103D30000CCF0E94851C809309020E94851C8093F1
:103D400008020E94851C853409F475C080910C021C
:103D50008E7F80930C028091060190910701880F5D
:103D6000991F90930701809306010E94851C803261
:103D700009F0EBCE84E10E94531C2091080230919F
:103D8000090221153105E9F1C0E0D0E0E09106011A
:103D9000F09107010BC081FF54C03196F0930701E9
:103DA000E09306012196C217D30758F580910C02C3
:103DB00080FFF1CFF999FECFF2BDE1BDF89A80B551
:103DC0000E94531CE0910601F09107013196F09397
:103DD0000701E09306012091080230910902E2CF29
:103DE0000E94851C803209F0DACE84E10E94531CC7
:103DF0008EE10E94531C84E90E94531C86E00E94BD
:103E0000531C80E10E94531CA0CE83E00E94E41C5E
:103E10009CCE82E00E94E41C98CE81E00E94E41CCB
:103E200094CE80E10E94E41C90CE80910C028160CF
:103E300080930C0232CF80910C02816080930C023F
:103E400094CF84910E94531C209108023091090262
:103E5000E0910601F0910701A0CF8091070187FD55
:103E600066C010920B028091060190910701880FA5
:103E7000991F90930701809306018091080280FFAB
:103E800009C080910802909109020196909309025D
:103E900080930802F894F999FECF1127E09106016A
:103EA000F0910701C8E0D1E08091080290910902E9
:103EB000103091F40091570001700130D9F303E004
:103EC00000935700E8950091570001700130D9F335
:103ED00001E100935700E89509901990009157006F
:103EE00001700130D9F301E000935700E895139574
:103EF000103498F011270091570001700130D9F368
:103F000005E000935700E8950091570001700130DB
:103F1000D9F301E100935700E8953296029709F032
:103F2000C7CF103011F00296E5CF1124FBCE81E00F
:083F300080930B0298CFFFCF34
:023F3800800007
:0400000300003800C1
:00000001FF
