:103800000C94341C0C94511C0C94511C0C94511CA1
:103810000C94511C0C94511C0C94511C0C94511C74
:103820000C94511C0C94511C0C94511C0C94511C64
:103830000C94511C0C94511C0C94511C0C94511C54
:103840000C94511C0C94511C0C94511C0C94511C44
:103850000C94511C0C94511C0C94511C0C94511C34
:103860000C94511C0C94511C11241FBECFEFD4E0BA
:10387000DEBFCDBF11E0A0E0B1E0E2ECFEE302C0AC
:1038800005900D92A230B107D9F712E0A2E0B1E0A5
:1038900001C01D92AD30B107E1F70E94261D0C94C6
:1038A000601F0C94001C982F8091C00085FFFCCFF6
:1038B0009093C60008951F93982F859585958595BB
:1038C00085958A304CF0282F295A892F8F708A309D
:1038D0004CF0182F195A08C0282F205D892F8F709F
:1038E0008A30BCF7182F105D822F0E94531C812F45
:1038F0000E94531C1F910895EF92FF920F931F9304
:10390000EE24FF2487018091C00087FD17C0089432
:10391000E11CF11C011D111D81E0E81689E0F8068B
:103920008DE3080780E0180770F3E0910401F0913F
:10393000050109958091C00087FFE9CF8091C600FD
:10394000992787FD90951F910F91FF90EF90089513
:103950001F930E947C1C182F0E94531C113634F0B8
:103960001755812F992787FD90950CC010332CF4A3
:10397000812F992787FD909505C01053812F992796
:1039800087FD90951F9108951F930E94A81C182FE2
:103990000E94A81C1295107F180F812F992787FD70
:1039A00090951F9108951F93182F11501F3F21F0DC
:1039B0000E947C1C1150E0F71F9108951F93182F4F
:1039C0000E947C1C803269F0809103018F5F80939C
:1039D0000301853079F4E0910401F0910501099526
:1039E00009C084E10E94531C812F0E94531C80E176
:1039F0000E94531C1F9108950E947C1C803271F01C
:103A0000809103018F5F80930301853009F0089551
:103A1000E0910401F09105010995089584E10E9467
:103A2000531C80E10E94531C0895282F21502F3FE2
:103A300061F0E0E0F0E02D9ACF010197F1F72D98C9
:103A4000CF010197F1F72150B0F708950F931F931D
:103A5000CF93DF9384B714BE809160008861809318
:103A6000600010926000000089E18093C400109211
:103A7000C50088E18093C10086E08093C200509821
:103A8000589A259A83E00E94151D0E947C1C803361
:103A9000B1F18133B9F1803409F454C0813409F4AF
:103AA0005AC0823409F469C0853409F46CC0803589
:103AB00031F1823521F1813511F1853509F469C083
:103AC000863509F471C0843609F47AC0843709F464
:103AD000DBC0853709F434C1863709F44AC08091C8
:103AE00003018F5F80930301853079F6E091040133
:103AF000F091050109950E947C1C803351F60E94CB
:103B0000FC1CC3CF0E947C1C803249F784E10E94D8
:103B1000531C81E40E94531C86E50E94531C82E5DD
:103B20000E94531C80E20E94531C89E40E94531C93
:103B300083E50E94531C80E50E94531C80E10E9493
:103B4000531CA3CF0E947C1C8638C8F20E947C1CA8
:103B50000E94FC1C9ACF0E947C1C803809F405C18D
:103B6000813809F406C1823809F407C1883909F49B
:103B7000E3C080E00E94DE1C88CF84E10E94D31C59
:103B80000E94FC1C82CF85E00E94D31C0E94FC1C7A
:103B90007CCF0E947C1C809306010E947C1C809339
:103BA00007010E94FC1C71CF0E947C1C803309F429
:103BB000E8C083E00E94D31C80E00E94DE1C65CF39
:103BC0000E947C1C809309020E947C1C8093080246
:103BD00080910C028E7F80930C020E947C1C8534A5
:103BE00009F4E0C08091080290910902892B89F0C4
:103BF000C0E0D0E008E011E00E947C1CF801819355
:103C00008F0121968091080290910902C817D90767
:103C100098F30E947C1C803209F061CF80910C02E5
:103C200080FFD8C0E0910601F0910701EE0FFF1F61
:103C3000F0930701E0930601609108027091090278
:103C400061157105D1F09F0140E050E0A8E0B1E0BE
:103C5000F999FECF32BD21BD8D9180BDFA9AF99AB6
:103C60004F5F5F4F2F5F3F4F4617570789F76E0F24
:103C70007F1F709307016093060184E10E94531C2B
:103C800080E10E94531C01CF0E947C1C809309029A
:103C90000E947C1C8093080280910601909107018C
:103CA000880F991F90930701809306010E947C1C46
:103CB000853409F47DC080910C028E7F80930C02C4
:103CC0000E947C1C803209F0E0CE84E10E94531CEB
:103CD00020910802309109022115310509F441C0F3
:103CE000C0E0D0E0E0910601F09107010BC081FF38
:103CF00065C03196F0930701E09306012196C21743
:103D0000D30778F580910C0280FFF1CFF999FECFAF
:103D1000F2BDE1BDF89A80B50E94531CE091060106
:103D2000F09107013196F0930701E093060120918D
:103D3000080230910902E2CF83E00E94DE1CA5CE8A
:103D40000E947C1C803209F0CACE84E10E94531C80
:103D50008EE10E94531C84E90E94531C86E00E945D
:103D6000531C80E10E94531C90CE82E00E94DE1C16
:103D70008CCE81E00E94DE1C88CE80E10E94DE1C99
:103D800084CE0E947C1C0E947C1C182F0E947C1CEC
:103D9000112309F489C0113009F48AC086E00E9419
:103DA000DE1C73CE80910C02816080930C021ACFCE
:103DB00080910C02816080930C0282CF84910E94DA
:103DC000531C2091080230910902E0910601F09104
:103DD00007018FCF8091070187FD6EC010920B0203
:103DE0008091060190910701880F991F9093070118
:103DF000809306018091080280FF09C0809108022B
:103E00009091090201969093090280930802F89418
:103E1000F999FECF1127E0910601F0910701C8E062
:103E2000D1E08091080290910902103091F4009144
:103E3000570001700130D9F303E000935700E89573
:103E40000091570001700130D9F301E10093570050
:103E5000E895099019900091570001700130D9F34D
:103E600001E000935700E8951395103498F011275E
:103E70000091570001700130D9F305E0009357001D
:103E8000E8950091570001700130D9F301E10093EA
:103E90005700E8953296029709F0C7CF103011F01D
:103EA0000296E5CF1124E9CE8EE10E94DE1CEDCD15
:103EB00084E90E94DE1CE9CD81E080930B0290CF63
:023EC000FFCF32
:023EC20080007E
:0400000300003800C1
:00000001FF
